:040000006F10907C71
:100004000000000000000000286B0000F81A002027
:10001400A9BDF9F3286B00000000000000000000F7
:10002400286B0000286B00000000000000000000A6
:10003400286B000000000000286B00000000000096
:1000440000000000286B000000000000286B000086
:10005400020B0020FC0A0020AE1400200000000067
:100064006A1700200000000000000000286B000058
:10007400286B0000286B0000286B0000286B000030
:1000840000000000286B000000000000286B000046
:10009400411122C406C6937725002A8495C7938705
:1000A40041379C433707020023A2070698C781778C
:1000B400FD17138741363374F5005C43C18B89C740
:1000C4001C43814541458297937714009DCF9387C4
:1000D40041379C433707020023A2070698C73529F6
:1000E40093874136D84319E9058B15CF03A307003D
:1000F400814505452244B24041010283218B05C755
:1001040003A3070081452145F5B79317E40063DC99
:100114000700138741365C43918B91C70323070083
:1001240081451145C1BFB24022444101828093F709
:10013400150085E39387C1369843B7B724009387A6
:10014400F7E963ECA7061C4393F707F893E7570214
:100154001CC38547631DF60093F7050313070003CB
:100164006395E70CE5818D89E1E5130505839387A4
:1001740001389C434166130606A0D857B70510FE04
:10018400FD1513672700D8D73357C5023375C50249
:100194007D8B93164701F8436D8F558FF8C3130772
:1001A400A00FB706FCFF2A053355E502F843758F07
:1001B4003A053981598DE8C38280B70725009386B3
:1001C400F74863E3A602B767DBFF93870793AA9711
:1001D4009306007DB3D7D702FD17144393F7F707AF
:1001E40093F606F8D58FADB7938707496318F500E2
:1001F4001C4393F707F893E7670299BFB7D7250025
:100204009387F77763EDA700B767DBFF93870793BF
:10021400AA979306007DB3D7D702F9177DBF1C4375
:1002240093F707F893E7770225B74147E38FE7F29F
:10023400130585C12DBF630605145C490947638313
:100244000714411126C2938441379840914706C64A
:1002540022C44AC02313F7001C438D8B89C71C4357
:1002640093E787001CC31389C13683270900B706A7
:10027400FDFF1386F6FF8C432A84B3F6C50094C3AE
:100284009443B7053300F18E37060200D18E94C330
:10029400938601389442484590464D8E90C6370661
:1002A4000F001306861D30CB37272300130707865C
:1002B400637EA70A0C4805469D3D1C48918B85C367
:1002C40083260900034784019C4293F70704D98FCE
:1002D400984293F7F707137707F8D98F9CC2084819
:1002E400832709001377150019CB98431377F70375
:1002F400936607049843137707F8558F98C31840FB
:10030400370600FF37090200B8D303474400F8D387
:100314001844B8CF185093168700F84FA182718FF4
:10032400558FF8CF9C4058480146F8DF23A20706B2
:1003340023A4270183459401BD2394404C4C854755
:100344009CC2014789CDD0468177FD17F18FDCC669
:100354000F1000009C4023A42701ECD3D0C7B24067
:100364002244924402493A8541018280D856759BC1
:10037400D8D61377F5078843137505F8598D88C3C4
:10038400B9BF05473A85828001114AC813894137AC
:100394000326090022CC26CA06CE4EC61C429384EC
:1003A400C1362A8493E787001CC20347B5019C40E9
:1003B4001367070493169701D85B1E071D83558F97
:1003C400D8DB0347A5012313E600D85B719B1367B1
:1003D4001700D8DB8C433707FDFF9306F7FF33F78D
:1003E400D50098C39843B7053300758FB70602004C
:1003F400558F98C313870138184348451447CD8E49
:1004040014C7B7060F009386862D34CAB726230077
:100414009386068663F1A60A0C480946093B1C48E4
:10042400918B99CF9440034784019C4293F707042E
:10043400D98F984293F7F707137707F8D98F9CC29F
:1004440018489C40058B19CB98431377F7039366A0
:1004540007049843137707F8558F98C31840544CF2
:10046400B7090001D8C703474400370600FF2285B7
:1004740098CB1844D8C31387F9FFF98E9847718F26
:10048400558F98C7832709005848B8DF55249C40E6
:10049400014598433367370198C3D85B719BD8DB18
:1004A40083270900F2406244094798C3D244424971
:1004B400B249056182805457F59A54D71377F507EA
:1004C4008843137505F8598D88C39DBF93874137B9
:1004D4009C439847D447F98E99CA9386C18E03A347
:1004E400060098C763050300C847798D028382809C
:1004F4009387C13698433C439983858B91CF930767
:1005040000063CC3938741379C433707020098C7D2
:10051400138701371843F8D382809387C1369C43ED
:10052400A8431581058982809387C1369843136552
:10053400050466055C5B9E079D83C98F5CDB828036
:10054400938701383727230094431307078693873B
:10055400C1369C436376A70E37B724001307F7E927
:100564006365A7069843137707F81367570298C380
:1005740093F7150081CB93F50503C147639FF50AF3
:1005840013050583DC56B70510FEFD1593E7270018
:10059400DCD6C167938707A03357F5023375F5029C
:1005A4009307A00F7D8B13164701F8426D8F518F6F
:1005B400F8C23707FCFF2A053355F502FC42F98FD0
:1005C4003A0539815D8DE8C282803707250013061C
:1005D400F7486363A6023767DBFF130707932A977D
:1005E4001306007D3357C7027D1790431377F7072F
:1005F400137606F8518FA5BF130707496318E50062
:100604009843137707F81367670295B737D7250020
:100614001307F777636DA7003767DBFF13070793AB
:100624002A971306007D3357C70279177DBF984375
:10063400137707F8136777021DBF130585C199B7B0
:10064400D8561375F507759BD8D69843137707F8D2
:10065400598D88C38280938701389C43984B9316A5
:10066400E70063DE0600371701141307F78F98CBF2
:10067400F84F6D9BF8CF09671307879F98C782804F
:10068400138741371843AA8718430D8B45E349C99B
:100694002D476367A7069307F5FF93F7F70F1387B3
:1006A4000138184393F7F703E2075457717613069A
:1006B400F60FF59A54D7084BB70600C1FD16758D91
:1006C400C98F1CCB9387C1369C430145DC5B144B1B
:1006D400E58393F7F703F18EA207D58F1CCB7C4FEC
:1006E400B706F9FFFD1693E747007CCF1C4BF58F47
:1006F400B7060200D58F1CCB9386864F14C7828021
:1007040031476302E502130760026365A70093079C
:10071400E5FF61B7130770024945E382E7F8828079
:1007240093075002ADBF9307600295BF05458280D1
:10073400938701389443184913884137DC5A9375D9
:1007440007701376070393F7F78FCD8FDCDAC14573
:100754009387C1369C4383260800C288631AB60473
:1007640090435849B70500FA1376F6CF184390C35F
:10077400D053FD1521836D8ED0D303D66600CC46AD
:100784008177FD17ED8F42064182DCC60F10000011
:1007940083260800B70702009CC69377F70FAD07BE
:1007A400135716008A076107BA978607FCD285A8F3
:1007B400930500036310B60A904341831366063021
:1007C40090C30966518F2393E702D8531316770019
:1007D40063490604F04B0347950113660610F0CBFA
:1007E400238AE704DC530546E5838D8B639FC702A8
:1007F40083D76600CC4601767D166D8EC207C18311
:10080400D0C60F10000083A60800370602008583B7
:10081400290790C6E1070E073E970607F8D2CCC613
:10082400828058490347070075BF83D76600CC46CA
:1008340001767D166D8EC207C183D0C60F100000ED
:1008440083A608003706020085832D0790C6E107BA
:100854000A07D9B790435849B70500FA1376F6CF7B
:1008640013660610184390C3D053FD1521836D8E73
:10087400B70500024D8ED0D303D66600CC468177EF
:10088400FD17ED8F42064182DCC60F10000083265F
:100894000800B70702009CC69377F70FA9078E07D5
:1008A4001307860111B7138701389387C13613766E
:1008B4000503414814439C4313873500631A060516
:1008C40090430E071376F6CF90C303C6C1379375D2
:1008D400F601B04A019A4D8EB0CAD453370600FAD5
:1008E4007D16F18ED4D3D44B93F606FC93E6D60052
:1008F400D4CB9306F007238FD700D44F93F606C0CA
:1009040093E6060AD4CF1307C70323A8E1368280EF
:10091400130800036316060D9043418113660630E5
:1009240090C30966518D2393A702D0531315760003
:1009340063480500F04B13660610F0CB238AB70416
:10094400D053854565820D8A631AB60412071307CE
:10095400C70323A8E136D84B137707FC1367B70006
:10096400D8CB13078007238FE700D85351830D8B0F
:1009740005E3D84F137707C01367C707D8CF83C7DA
:10098400D13713F7F701BC4A819BD98FBCCA828047
:10099400D84F137707C01367C709CDB70E071307DE
:1009A400C70323A8E136D84B137707FC1367D70096
:1009B400D8CB1307F007238FE700D85351830D8B4F
:1009C40011EBD84F137707C013670708D8CF83C735
:1009D400C13745BFD84F137707C01367070AFDB760
:1009E400904312071376F6CF1366061090C303C61E
:1009F400D1379375F601B04A019A4D8EB0CAD453DB
:100A0400370600FA7D16F18E37060002D18ED4D354
:100A1400D44B93F606FC93E6B600D4CB930680073A
:100A2400238FD700D44F93F606C093E6C609D4CFDC
:100A3400D9BD938741379C43D8431367E701D8C393
:100A44003707020023AA07040D07D8C79387C136C6
:100A54009843C167FD173CC3930700045CDF8280A1
:100A6400938641379C42B84B3D9BB8CB98430D8B42
:100A740011CF98431367870098C30100010098427F
:100A84003C4B93F7F78F93E707503CCB828041119F
:100A940006C6973000E0E780E056E5BF411122C466
:100AA40006C6937715002A8489CB83A7C18291C790
:100AB4009C4381C71385819482979377840099C757
:100AC40083A7C18281C79C4791C38297937704010E
:100AD40099C783A7C18281C7DC4391C382971188D8
:100AE40011C883A7C18299C7DC4789C72244B24091
:100AF40041018287B240224441018280C13A73009D
:100B04002030FD327300203023AAA192828023A4D6
:100B1400A1928280138781921C4B120593F7F7FCF4
:100B2400C98F1CCB828093878192C8CB86053E8572
:100B3400ACAF6FF07F8523A2A190828023A8A190FF
:100B44008280138741901C4B120593F7F7FCC98FE1
:100B54001CCB8280AA878607138541905CCD6FF0F9
:100B64008FED138701831C433E95B7671900938764
:100B7400D7603305F502B7F76E3C9387F7353E959A
:100B8400C167FD1708C33335F5028280B707006ECD
:100B94009387670B22055D8D8280411106C69730CD
:100BA40000E0E78000FD11E983C7C18481C71565B2
:100BB400130505E2B240410171BFB2404101828098
:100BC400411106C622C4973000E0E78080FA39ED6F
:100BD4008D471384C184A386F1841C200547639A3E
:100BE400E702138701851E238507B3C707081EA3E1
:100BF40019476379F700971000E0E780C05A1C207A
:100C0400014581C71565130505E22244B24041013F
:100C140091B70947E395E7FE138701851E238507EE
:100C2400B3C707081EA303D72185E1B7B240224406
:100C340041018280357122CD06CF26CB4AC94EC7E9
:100C440052C52A84973000E0E780A0F209CD8D4791
:100C5400A386F18401456A44FA40DA444A49BA4910
:100C64002A4A0D61C5BD9384C184942011C40349EB
:100C740014000546636A26018D47A386F184F9DAD8
:100C84001565130505E2C1BF18209307100363031C
:100C9400F71493072003630CF71293073003630ED2
:100CA400F70889476399F61630206307D71283C77C
:100CB400E184FD1793F7F70F630CF6629307E007DF
:100CC400631CF7629547A386F1843C20938901A5B0
:100CD4009305E9FF2381F9003C202EC08507238773
:100CE400F18483C781846386073C854763F3B73CFB
:100CF40058209307500A631EF73A58309307A0050B
:100D04006319F73A138441841C4091E7973000E05B
:100D1400E780404A08C0138701841C438246930538
:100D2400C003138501A5B6971CC39307E02F239036
:100D3400F900A38901A4C53B09ACA547E3FE27F349
:100D44008947639AF65C83C7E1843020FD1793F7E3
:100D5400F70F6390C71093051003630BB70C894713
:100D64006315F7429547A386F184938701A5B0A341
:100D7400382005072387E184130720F898A3054743
:100D84006399E61E2D47D4A3971600009386462C3C
:100D940098B3983290222207518FB0224206598E7E
:100DA400B832D0B36207518F13568700F0A313569D
:100DB4000701618398A7D822F0B398B7D832B8A7AF
:100DC400F822B8B7F832D8A7A38901A41DAC9307B9
:100DD4005002ADB799479DB703C7B1849387D184B7
:100DE400630D071603C7A1846319C71693869184FC
:100DF4009822630407167D1798A2154798A39305B4
:100E0400C003138501A56A44FA40DA444A49BA4941
:100E14002A4A0D6109BBDDC683C7E1843020FD1772
:100E240093F7F70F6314F6029305E007E315B7F29F
:100E34001547138501A5A386E1841307E02F3CA180
:100E44001AA1A38901A49305C00375BF8947E30BC5
:100E5400F7F09307E007E307F7E693071003631639
:100E6400F732938901A52381C9009547A386F184AC
:100E74003C20154693054400850713858183238709
:100E8400F184971000E0E780801F0547A38BE1827F
:100E9400938641839C224D46850793F7F70F636A37
:100EA400F62C9CA2F9572380F90083C71189639714
:100EB4000722138551A5973000E0E78060C36306DD
:100EC400052AB9A49307F7FF93F7F70F6376F600A3
:100ED4009307E007E31DF7D62299030549009D47D0
:100EE400A386F18423870184AD393345050801E5E0
:100EF400056513054523239AA1848567938401A579
:100F04001389E184938717E89EA0834709002A8404
:100F1400BCA0A38901A49D3993075002B377F402BE
:100F2400C8C09305C0032685A2A49CA485479CB48D
:100F3400B7076400A907DCC4FD36834709008507A9
:100F44002300F90099472399F184FA406A44DA446A
:100F54004A49BA492A4A0D618280154798A31387E2
:100F640001A530A33C2085072387F184930720F84B
:100F74001CA383C71189138901A585C79307F004AE
:100F8400A300F9001306C004930700049385C1B6B7
:100F9400138551A52302F900971000E0E780200E85
:100FA40025B5138551A5973000E0E78060B409C9E1
:100FB400BD47A300F900930700032302F90029B5F4
:100FC4003C301307F0036371F70E1307B00FB3D768
:100FD400E70A8A85138551A53EC0972000E0E78083
:100FE40020C42DE1824713873700A300E900238A38
:100FF40001A4A38901A491C71387418A1443B69716
:101004001CC39305C003138501A5313E03C701A585
:1010140093072008631BF7003C202385F184854750
:10102400A385F184A147A384F1849820854763189C
:10103400F70089479CA0930740062399F1842398DD
:10104400018421B7930700086310F506AD4717170D
:1010540000001307E7FFA300F90085472302F90006
:101064001C331423A207D58F3423C206DD8E3C33F0
:10107400A302D900E207D58F93D687002303D900B2
:1010840093D60701E1832304F9005C23A303D90069
:10109400A304F9005C332305F9007C23A305F900BC
:1010A4007C332306F9000DB38947A300F900C15727
:1010B40029B713054400B3C50508972000E0E7806D
:1010C40020BD824791C71387418A1443B6971CC336
:1010D400F9572380F90083C7118985C79307F00462
:1010E400A380F9001306C004930700049385C1B6D6
:1010F400138551A52382F900971000E0E78020F8BA
:10110400A1A8138551A5973000E0E780609E09C926
:10111400BD47A380F900930700032382F9002DA89B
:101124003C301307F0036371F7041307B00FB3D710
:10113400E70A98203EC089476319F7028A85138518
:1011440051A5972000E0E780A0AD05E182478D0717
:10115400A380F900238A01A4A38901A49305C003F1
:10116400138501A5C932D1B502C08947A380F9000E
:10117400E5B7238A018293878194CA9783874700BE
:10118400A38AF182238BE18231BB9307200363118D
:10119400F7109547A386F1842389C1A43C208507D1
:1011A4002387F1845C2019476390E704975500E096
:1011B4009385C5BDA3030402130684000A859740E2
:1011C40000E0E7808008B34505080A85972000E021
:1011D400E78060B39307E02F138501A51EA1930553
:1011E400C003A38901A4BDBF1D476399E70093050C
:1011F4009003175500E01305A5BAC9BF2147E39B27
:10120400E7FC973000E0E780E0FA138A4184832703
:101214000A002A899389018495EF8146014703A630
:10122400090093078400975500E0938525BB0A8540
:10123400974000E0E7806001B34505080A859720E0
:1012440000E0E78040AC2384018423A2018423A02E
:10125400018449B7973000E0E780E0EC1307703E63
:1012640085476376A7009307803EB357F5020327AB
:101274000A00B306E94003A70900E3E0F6FAB3D68F
:10128400F6029307803E3307F7023357D70241BF74
:10129400930730036312F7069547A386F1842389E5
:1012A400C1A43C2085072387F18483C71189E38384
:1012B40007F29387C1B654209823E39DE6F0B42344
:1012C4007830BC3370202207A207518FD58FE313E7
:1012D400F7F021469305440013858188971000E0B8
:1012E400E780E0D9A388018885472388F188DDB5A4
:1012F4009306E007E30ED7B2138701851E23850703
:10130400B3C707081EA303D72185E360F7C48D473D
:10131400A386F1841DB9E38C0692FDBC5D7186C67B
:10132400A2C4A6C2CAC0973000E0E780808449E91D
:101334009384D18494201D479387C1846398E606DF
:10134400138401A505494840238027013E2423989E
:101354000184239AF184EFF08FFB0824EFF0CFFA95
:101364000834EFF02FFB4840EFF0EFFC0824EFF0D7
:10137400EFFC0834EFF0EFFC54401024975500E0E4
:101384009385C5A80A85238B2185974000E0E780D3
:10139400C0EBB34505080A85972000E0E780A096D6
:1013A4008D479CA01565130505E221A09C230145EA
:1013B400F5FB2644B6409644064961616FF08FF907
:1013C400B640264496440649616182800111680052
:1013D40006CE973000E0E780A0DA856601468145B5
:1013E4000545EF00502D19E1652D01A032459730D8
:1013F40000E0E780E0DAF24001450561828079711E
:1014040022D405647D1426D22A94AA8468004AD082
:1014140006D64ECE52CC56CA3180973000E0E780D3
:1014240020D60149631B89048147B5C80144ADEB4B
:1014340093090010370A0200138941EAFD5AB38662
:1014440084408147B3D6360B3307F40052971023F8
:1014540033872701850710A3E398F6FE93F7360038
:101464008DEB4A86A2850945EF00F02415E91304A3
:101474000410E36694FC2D2501A0856601469315AE
:10148400C9000545EF00302319E1050961BF85470F
:1014940069BFB307D900238057018506C1B7E1DFCF
:1014A4003245973000E0E780A0CF0D3701A03787A1
:1014B40000407C23898B85C37C3313F6F70F939705
:1014C400476063DF0706971000E0E780C014B78722
:1014D40000400947F8A3B7870040F823058B21CBC8
:1014E400A38D018C238D018C239A018C238F018A77
:1014F400A382018E2382018E239C018C239B018C69
:101504002381018C238E018A238A018AA38E018A76
:10151400A381070009472381E7022383E702238588
:10152400E7022387E7022389E7020547F8A3378701
:1015340000407C23918B99C391477CA37300203096
:101544009377060393060003E383D7F8142793776E
:10155400F6039305400293F6F60FE3EAF5F61376E5
:10156400060209EE0546638DC70209466384C71067
:10157400B9FF971000E0E780200391BF9387F7FD40
:1015840093F7F70F0D47636DF71C174700E0130738
:10159400277CB3C7E7209C43BA97378700408287EC
:1015A4007C2393F70704E38407F2834767021385D8
:1015B400818D014693C707082303F7021A2183C8C4
:1015C400318981479385418D1303F027138E41EAB6
:1015D400938E4122130F002813F8F70F6367D80284
:1015E4002DE203D7418D93070028998F1307F00745
:1015F400E34FF7EC378700408347670293F7370FD1
:1016040093E787002303F702D9B5639E080203D842
:101614000500636A03033388D701034808003306CF
:10162400EE008507230006019221050713F8F70F42
:1016340005063346060892A13367E7030546E368C7
:10164400D8FC1AA179BF850741BF8347670293C7B6
:1016540007042303F7028347670293F7C70F93E74F
:1016640027002303F702A38D018C971000E0E78085
:101674006043B1BD7C2393F70704E38A07E48347FF
:10168400A7021385618C014693C707082305F70257
:101694001E2101479388411A2943138E41BC1388A4
:1016A400518C854E354F930FE0099375F70F63E620
:1016B400D500E30E06E01EA119BDB30517018C2168
:1016C40063846500639BE50199C7B305FE0023802D
:1016D40005002300D8010507C9BF83420800E39C25
:1016E40002FEE3EAFFFE138641BC93821700B29721
:1016F4008CA30546B3C70208F9BF8347A70293C763
:1017040007042305F7028347A70293F7C70F93E75C
:1017140027002305F702238D018C971000E0E78052
:10172400202575B38347E70293C707042307F7020D
:101734008347E70293F7C70F93E727002307F702CE
:1017440079B38347270393C707042309F702834721
:10175400270393F7C70F93E727002309F70285BBF5
:10176400971000E0E78020DA9DB3372700408347D5
:101774006740858B6384070E85472303F74083C73F
:10178400018A9385018A1388818593887185D9EBB1
:10179400138EA18583470E0083D6E1891383918537
:1017A4000346030013F7F60303D5C1893E97137765
:1017B400F70F9377F503B2971336070493F7F70FF0
:1017C400998213461600369693B60704198193C678
:1017D4001600AA961376F60F93F6F60F2300EE0082
:1017E4002300F3002300C8002380D8001305F0036E
:1017F4006376E500130707FC2300EE001307F003EC
:101804006376F700938707FC2300F3009307000433
:1018140063F4C7002300F8009307000463F4D700BF
:101824002380F8009C2183460800850793F7F7037B
:101834009CA1982183C70800B337F70098218A0731
:101844006374D70093E78700371700409306C70AED
:101854009CC21307870B93C7C7001CC373002030B7
:101864009307000C01116314F50493078008F3B780
:10187400078093F787083EC00F100000B717004099
:10188400130770052380E704130780FA2380E70415
:101894000F10000098271367070C98A723800704EC
:1018A4008247F3A707800F10000005618280B717F5
:1018B4000040B827118B69EB83C6E704130780083F
:1018C40093F6F60F733607801376860832C20F102C
:1018D40000001308700523800705930580FA238010
:1018E400B7040F10000003C6E7041366360023870D
:1018F400C704B02713664600B0A723800704124626
:10190400732606800F10000090271376F60F7337A6
:101914000780137787083AC40F1000002380070557
:101924002380B7040F10000098271367070C98A7AB
:1019340023800704A247F3A707800F100000A547E0
:101944000100FD1793F7F70FE5FF93078008F3B73E
:10195400078093F787083EC60F100000B7170040B2
:10196400130770052380E704130780FA2380E70434
:101974000F10000090A72387D70423800704B247E1
:10198400F3A707800F1000009377050C13070004DA
:101994006399E70893078008F3B7078093F78708EC
:1019A4003EC80F100000B7170040130770052380CE
:1019B400E704130780FA2380E7040F100000B82718
:1019C400854613670701B8A737270040A303D780CC
:1019D4008346578093E60601A302D7802380070439
:1019E400C247F3A707800F10000093078008F3B7DE
:1019F400078093F787083ECE0F100000B71700400A
:101A0400130770052380E704130780FA2380E70493
:101A14000F1000001375F50F88A723800704F24701
:101A240049B59377F5019DCF93078008F3B70780F5
:101A340093F787083ECA0F100000B717004013073A
:101A440070052380E704130780FA2380E7040F104E
:101A54000000372700408946A303D780238007046A
:101A6400D24741B793078008F3B7078093F78708F5
:101A74003ECC0F100000B7170040130770052380F9
:101A8400E704130780FA2380E7040F1000003727C8
:101A940000409D46A303D78023800704E24791B703
:101AA4000111814601468145114506CE292193073E
:101AB4008008F3B7078093F787083EC60F1000002D
:101AC400B7170040130770052380E704130780FA53
:101AD4002380E7040F10000003C76704136717008F
:101AE4002383E70423800704B247F3A707800F107A
:101AF4000000F24005618280411181460146814522
:101B04001145552E13078008F337078093F787088C
:101B14003EC40F100000B717004013067005238061
:101B2400C704930680FA2380D7040F100000FD55E4
:101B3400CEB723800704A245F3A505800F1000004B
:101B440073370780137787083AC60F100000238085
:101B5400C7042380D7040F10000003C7670413676A
:101B640017002383E70423800704B247F3A7078001
:101B74000F10000001A0E5473305F50201007D15B3
:101B840075FD8280411122C406C62A841305803E55
:101B94007D14D5373344040875F8B240224441011A
:101BA4008280230304801547A2872303E480010075
:101BB40001002302A48003C7678062076187E34CA6
:101BC40007FE2382A780228783476780E207E18795
:101BD400E3CC07FE82802303048015472303E480BB
:101BE400010001002302A480828083076480E3CE85
:101BF40007FE23030480828083076480E3CE07FE0C
:101C040003454480828083076480E3CE07FE230279
:101C1400A4808280411126C44AC24EC006C61377EE
:101C2400F50BAD47AA892E8995446306F70019453B
:101C34005D37653F8D444E85793FFD59FD146398AA
:101C44003401B240A24412498249410182801355B1
:101C540009011375F50F453F2209CDB7011126CCB3
:101C640006CEB704080051371545B53771376937C3
:101C74002AC6A53F32459377150089EB13651500F5
:101C84001375F50FF240E24405618280FD14E9FC0E
:101C94000145CDBF411106C6B717004013077005B3
:101CA4002380E704130780FA2380E70403C747046B
:101CB4001305F00F1367070E2382E70491472303EC
:101CC400F480C535B24041010DB7011126CC4ACA92
:101CD4004EC852C606CE2A89AE89B284554A5D3FA3
:101CE40091E82137F24026855249E244C249324AFA
:101CF40005618280CA850945313F910903A7C9FF5F
:101D040091472320E48003076480E34E07FE230306
:101D14004481FD17EDFBFD14110981C49377F90F7C
:101D2400E9FF2D3F55FDFD5475BF011126CC4ACA6C
:101D34004EC852C656C45AC206CE2A89328A8D4922
:101D4400913FC164C16A056B9387F4FFB3F7270120
:101D540099E363719A02FD199180E39709FE713545
:101D64000145F240E2445249C249324AA24A124B66
:101D7400056182801305800D6388540113050002F8
:101D84006384640113051008CA856935C13D09C51A
:101D94002699330A9A4075BF7D55E1B7011106CEE5
:101DA40026CC4ACAB2844EC82AC62E89E5353245A5
:101DB400FD14FD59AA852D45B13D639A340135358D
:101DC400F24026855249E244C249056182802D359C
:101DD40093F7340091EB83260480032709009307CB
:101DE4004900E39EE6FC3E89FD14C1BF011106CE05
:101DF4002AC64D353245C533F2400561FDB30111A4
:101E040006CE26CC4ACA4EC852C6AA8956C42E89C2
:101E14005135B7050400B3E5B9002D45E53B8144D0
:101E24008D4A214AD13B63965401832704802320A1
:101E3400F9008504E39844FF83270480139729015C
:101E4400635C07002312F900F240E2445249C2499C
:101E5400324AA24A056151BB2322F900F5B7411168
:101E640006C626C44AC24EC0AE892D358145130527
:101E7400B0044D33BD447D59413393F77400CE977C
:101E840003C70700FD14398D2380A700E39624FFC0
:101E9400B240A24412498249410181BB411106C6A4
:101EA400D53B13056006053B89331305900925339B
:101EB400B24041011DBB01112A8706CE2E8526CCD6
:101EC400B2854ACA368622C637240040B7E700E006
:101ED400FD5603A90700C44323A0D71823A2D7188B
:101EE4009307F7FF93F7F70F894663E7F608B717E9
:101EF400004083C75704B706040093F7070299E329
:101F0400B7C60300F9576372D5043308C50063EEFE
:101F1400060389476311F7040982453BAA873717EB
:101F24000040930670052300D704930680FA23002B
:101F3400D70483464704C18A2302D70437E700E065
:101F440023202711232297103244F240E2445249BD
:101F54003E85056182808547631CF7008567FD1710
:101F64003E96E98F3E96FD777D8E7D8D7D3B7DB7D8
:101F740035359307150065B7B5476317F7001305A3
:101F8400900BAD35814761BFB1476315F700130569
:101F9400B00AC5BF99476314F7009535E5B79D4767
:101FA4006318F70023A0050023A205004D3DD9BF07
:101FB40091476314F700DD35F1B781472DD3F1570D
:041FC400B9BF0000A1
:101FC8009711002093810188171100201301010344
:101FD8001305400097E5FF1F93854502170600206B
:101FE800130606FE63FAC5008322050023A05500E8
:101FF80011059105E3EAC5FE175500001305C5B2A2
:10200800970500209385C5FB1386C18263FAC50036
:102018008322050023A0550011059105E3EAC5FEBA
:102028001385C182938581386377B5002320050025
:102038001105E36DB5FE93025002739002BC8D4208
:10204800739042808542739012BC9302800873900B
:10205800023097E2FF1F938262FA93E23200739094
:102068005230970200009382020773901234730073
:1020780020302A8309CA83830500230073007D1654
:10208800050385056DFA82802A8311C62300B300F3
:102098007D16050365FE82801021942105058505BE
:1020A8006313D60075FA3305D640828015C22A8399
:1020B80085466367B500FD561307F6FF3A93BA9550
:1020C80083830500230073007D163693B6956DFA59
:1020D80082804111054506C6EF101077130560048C
:1020E80097F0FF1FE7808077B7F700E07D5798CB20
:1020F800154798C3EF1090272928F524EF1070375B
:10210800EF10F05D97F0FF1FE780209823A6A182CB
:102118008280011197F7FF1F938707983EC4280014
:10212800F54706CE3EC6EF20E00A116793878192F5
:10213800130707BABAAF37062557B75655003707FA
:1021480080001307D73213065642454593865655E5
:10215800C1452382070090C3C8C794C78CCBD8CF8A
:102168009387419098D313878194D8CB7D5798BF94
:102178002382070090C3C8C794C78CCB23A60182CB
:10218800F240B7E700E03707100023A0E710370751
:10219800200023A0E71005618280411122C4370482
:1021A80025571305544206C6238B0184A385018451
:1021B800A38401842384018423A2018423A00184AD
:1021C80023860184239A018497F0FF1FE780E09318
:1021D800454597F0FF1FE780E0921305544297F0BA
:1021E800FF1FE7800095454597F0FF1FE780C094E3
:1021F8008D470145A386F18497F0FF1FE78040953E
:102208002244B24093059002174500001305C5B457
:1022180041016F00902E85472384F18423A2018415
:1022280023A00184828083C77183638D071A71712B
:10223800680806D722D526D34AD14ECF5AC952CDDF
:1022480056CBEF1030737245938781830394070050
:10225800A623A38B018283C9618303895183238BBE
:102268000182EF103073EF10307423A4A18A170B8A
:102278000020130BEBD503475B0083474B00034655
:102288007B0022075D8F83476B006206C207D98FE8
:102298005D8E01E61566130606E23727260013074A
:1022A800075A9355F441B385E50213551600B30751
:1022B800E4023334E402A29563CF05103E95B337A8
:1022C800F5008146BE95EF20C0441306803E336A70
:1022D800C5020347CB00B3074041336AFA0AB30784
:1022E800A0403364F50A8347DB00B34AC502A2075E
:1022F800D98F95CF9356F44193550401139706014E
:102308004D8F9315040133858540158FB3B5A5000E
:102318008146B305B7403386C702EF20B03881E560
:10232800C1676364F50041657D152396A18A9547C9
:10233800B384F4021306803E814689048980B3255C
:10234800940233858402EF20C03C1306803E814608
:102358002A8B2E84EF20807929468146EF20603B26
:102368002AC61306803E81465A85A285EF20603A28
:102378001306803EB3F6C402B2482A889745000087
:10238800938585AAD2875687880033D6C402EF2062
:10239800106BB34505088800EF0030166383090207
:1023A800634409001309C0FB974500009385C5AA3B
:1023B8004A860810EF20B068B34505080810EF00FA
:1023C800D013BA502A549A540A59FA496A4ADA4A2E
:1023D8004A4B4D6182803385A740B3B7A700814639
:1023E8009D8DD5B58280411117050020130545BD87
:1023F80006C623860184239A0184093BB24001451D
:10240800410117E3FF1F6700A37403C6D18B094777
:102418009387D18B9386E18B631BE600982205078F
:10242800058B98A298237D171377F70F98A3982206
:1024380094233697058B9386018C369708A39823A7
:1024480005071377F70F98A38280AA87130700025E
:1024580083860700638EE6000145A546A9450387E4
:102468000700130707FD1376F70F63F5C600828090
:102478008507F9BF3305B5021317476085073A95F5
:10248800F9BF1377F50F930607FD93F6F60F254668
:10249800AA876367D600930705FD13954760828076
:1024A8009306F7F993F6F60F15466365D60093077A
:1024B80095FAE5B71307F7FB1377F70F7D55E36038
:1024C800E6FE938797FCD1BF05667D1683D72186E4
:1024D800B387C702A166FD1641677D17B697B3D7C4
:1024E800E702239FF18883D70186B387C702B6978F
:1024F800B3D7E702239EF188828083C7318E1947BC
:10250800639EE70601114EC69389018E22CC03D43F
:10251800090006CE26CA4AC852C49307000463ECD1
:1025280087009374F40F11E8B787004023800702EF
:10253800130720F815A893040004138AC18D0329F2
:102548000A0026861385412ACA8525362699058CD0
:1025580023202A0123908900B7870040238097020F
:1025680003C72702134707042381E702F2406244A6
:10257800D2444249B249224A056182801547639C88
:10258800E70003C7518EB7870040B8B3130720F898
:102598002381E7028280B7870040CDBF03C7318E11
:1025A80093070002631DF704411106C683C7218EF5
:1025B800A1E3938741811D463E859385412A553C79
:1025C8005E2174211041170700201307E7A75EA3B7
:1025D800854710C374A32383F18EB78700402380F7
:1025E8000702130700FC2381E702B2404101828001
:1025F8001D469385412A1385C180A53CF9BFB7873D
:10260800004009472381E702828001114EC606CEA9
:1026180022CC26CA4AC852C49387412A98339023A9
:10262800E223A381E18ED4239389018E13760606D3
:10263800239089002381D18E631B0616AD4663EF74
:10264800E62A97460000938626823347D720184308
:10265800369702872392012A894737870040B35764
:10266800F40A93F7F70F2300F702930700FC2301FE
:10267800F702F2406244D2444249B249224A056113
:102688008280B8338946BC23630AD7048D46630029
:10269800D7068547630DF7002390018EB787004062
:1026A8002380C702130700FC2381E702D9B7C94773
:1026B800174900001309091B3354F40A138AC18D02
:1026C8001306000423202A0123908900B354C40A66
:1026D8006303090051E813F6F40FC9B79307D0084C
:1026E800174900001309090F3354F40AC1BF1547ED
:1026F800E364F7FA173700001307077AB3C7E72030
:102708009C43BA9782879147138981823354F40A8C
:1027180075B7E947174900001309090A3354F40A41
:1027280071BF930760021749000013096906335403
:10273800F40A69B7D147174900001309290433542B
:10274800F40AADBF930780021749000013098900F6
:102758003354F40AA5B79307A002174900001309D8
:10276800A9FC3354F40A99BFCA8526861385412AE1
:102778002699058CEFF0FF8F23202A0123908900EA
:1027880099BFBC23A382F18EB787004089A003C7F5
:10279800418E98A3B787004005472380E70219B701
:1027A8002382012AC5BFBC232382F18EF1BF930582
:1027B80000026315B61493051002630DB700930564
:1027C80020026307B702B7870040631BC712238044
:1027D8000702C9BD9385C18099E2938541811D4651
:1027E8001385412AEFF0FF88B78700401D4775B76A
:1027F800A023D9FA138A318CA38D8180A385818087
:1028080083440A00EF10501AAA89EF101011930799
:10281800803EB357F5021307401F0D88B387E702C0
:102828001387C18B142389CA83A6818BB386D940A9
:1028380063F4D700238E018A1389418B83460900EC
:1028480089CA83A6018BB386D94063F4D700238A4B
:10285800018A9386218C9C2223008A0091EB85476C
:102868009CA28946E312D4F21CA323AC318B29BF66
:10287800E30C94F089476393F4041C23B5CF8D4689
:10288800631CD4000945513685472300F90023A865
:10289800318B238E018ACDBD85466305D40011C8CE
:1028A800054425A8E39797FE094585362300890046
:1028B800F9BF0545993E238E018A1DA08D46639474
:1028C800D40285466319D40083470900E39E07EACA
:1028D8000545253E55BD6311F40200A323AC318B99
:1028E800238A018A55B5E30DF4FA71D48547E39D2F
:1028F800F4E8E31BD4E8EDB75DDC79B5B7870040B1
:102908001307F0FC55B3B7A75A5A79719387575AEA
:102918003EC697F7FF1F9387A76BD44306D6982B1D
:1029280036C89447DC472800230EE1003ECC36CA5F
:10293800EF10500485660146B7A50300054597F0DA
:10294800FF1FE78000577000C546B7A5030009457B
:1029580097F0FF1FE780E0552245EF10B003B25013
:102968004561828083C6A18DBDE283C7518EA5C310
:1029780083D7818C1386818CB5CB1A2293070004E8
:1029880063E5E7001E2293F7F70F1385A18C1A2140
:102998009385411A0148938841C61303000C8505A5
:1029A8006398F602630308001AA11A221D8F3347A1
:1029B80007081AA20547238DE18C378700402304B6
:1029C800F7028347A70293F7C70F2305F702828010
:1029D8003388E8000348080005078506A38F050328
:1029E8003367670293F6F60F054855BF37870040EF
:1029F8008347A70293F7C70F93E72700F9B797F71D
:102A0800FF1F938727649823630EA70088A3C167D5
:102A1800FD173305F5029307F00F3355F50223919F
:102A2800A1865DB48280411122C406C61384418602
:102A38001C20B9EF8D453145EF100066B7170040EF
:102A48001387870BB14614C3D8371377B70FD8B796
:102A5800EF10A06C9167938707E83355F502B72705
:102A680000401387C740914608C309472380E740C1
:102A7800A380074005472383E7402381E74023805D
:102A8800D740B7E700E0B706000123A0D71018A089
:102A9800B24022444101828083C73189B5E783C6A9
:102AA800B18DBDE283C7518EA5C383D7E18C138650
:102AB800E18CB5CB1A229307000463E5E7001E22D8
:102AC80093F7F70F1385018D1A2193854122014849
:102AD800938841D21303001885056398F6026303AF
:102AE80008001AA11A221D8F334707081AA20547A2
:102AF800A38DE18C378700402302F70283476702E2
:102B080093F7C70F2303F70282803388E80003484E
:102B1800080005078506A38F05033367670293F648
:102B2800F60F054855BF378700408347670293F77C
:102B3800C70F93E72700F9B7011106CE22CC26CAA2
:102B48004AC82A89EF104066AA84EF10005D9307EF
:102B5800803E3354F5023304240313890189EF10AE
:102B6800A064B307954063E48700014529A0834723
:102B7800090081CB0545F2406244D24442490561CF
:102B880082806800EF10005F013FE93B3245EF109B
:102B98006060F1B7011122CC2A84680006CEEF10DC
:102BA800605D83D7418DB5C31386618D1E2213875F
:102BB80041EA9386418D3E971823850718A013078D
:102BC8000028B3E7E7021EA29E22FD17B3C7070835
:102BD8009EA29E221D8F9307F00F63D0E702B7874E
:102BE800004003C76702A146318B6318D70003C7AB
:102BF80067021377370F2383E7023245EF108059B6
:102C08000545F2406244056182803245EF108058E4
:102C18000145C5BF01114AC806CE22CC26CA4EC6F8
:102C280052C456C283C731892E8985EF83C4618E09
:102C380083AA050095C02383018E014493040008EC
:102C480023208900F24062444249B249224A924A0A
:102C58002685D2440561828083D7418D138A418DB0
:102C680099EF01449304F00FE1BF338589001D37C4
:102C78000504E3878AFC83570A00E5FBD1B7AA89D4
:102C88000144C5BF011126CAAA84680022CC06CE19
:102C98002E84EF10204E03D7E18C93070018998FEC
:102CA80063C887021386218D1E229386E18C014713
:102CB8008145138841D29308001833450708636299
:102CC800850291C11EA29E22A297B3C707089EA2A1
:102CD800E1333245EF10004CF2406244D2440561C2
:102CE80082803385E4000821B305F800850788A1B0
:102CF800B3E7170305078545C9B7011126CAAA8492
:102D0800680022CC06CE2E84EF10C04603D7818CF3
:102D18009307000C998F63C887021386C18C1E2203
:102D28009386818C01478145138841C69308000C1E
:102D3800334507086362850291C11EA29E22A297AD
:102D4800B3C707089EA239393245EF10A044F240B4
:102D58006244D244056182803385E4000821B305CA
:102D6800F800850788A1B3E7170305078545C9B7A4
:102D78001571138541BCCAC986CFA2CDA6CBCEC7D3
:102D8800D2C5D6C3DAC15EDF62DDEF20404F1389BA
:102D980041BCB706C0FF3307A9005946D9166307D7
:102DA800055E8347F7FFD91793F7F70F6367F600B8
:102DB800B3D7F640858B7D17BDCF97F4FF1F93845B
:102DC800242183D9A400A94703DA8400B3D7F902E0
:102DD80083AA440003DBC40083CBF40003CC0401C2
:102DE800138481BB3146974500009385A5901385D0
:102DF80041BC2311440123225401231464012305F7
:102E08007401A30584011CB0EF2060480DC99735F3
:102E1800000093856513138541BCEFF0EFA7631A93
:102E2800051A85471CA02382F18CCD451735000073
:102E38001305051221A27D15230007008DB79735CC
:102E480000009385E506138501BDEFF0EFA425ED9D
:102E5800A380018A03C7118A91471384118A6306E4
:102E6800F700182095476317F70EB7E700E0370714
:102E7800100023A0E7180F1000003707200023A038
:102E8800E7180F1000004536182085476306F7003D
:102E9800182089476314F70EB7E700E037070001E9
:102EA80023A0E7180F100000182085476312F70CBD
:102EB800B7170040314723A6E70AC9451735000070
:102EC80013054507A5A8973500009385E5FE1385EA
:102ED80001BDEFF06F9C854729C9973500009385A0
:102EE80025FE138501BDEFF02F9B89471DCD973532
:102EF80000009385A5FD138501BDEFF0EF998D477F
:102F08000DC5973500009385A5FC138501BDEFF02D
:102F1800AF98914719C997350000938525FC13850B
:102F280001BDEFF06F9709E59547A380F18A1DB7BA
:102F38009305800417350000130505FB6E44FE4019
:102F4800DE444E49BE492E4A9E4A0E4BFA5B6A5CE5
:102F58002D6165B31C20E39807F2B7E700E0370757
:102F6800100023A0E7103707200023A0E71021BF97
:102F7800B7170040314723ACE70A81B718208D47BF
:102F88006306F70018209147631FF7009317B028CE
:102F9800239FF188239EF18837070001B7E700E0F7
:102FA80023A0E71019BF18209547E301F7FE37075C
:102FB8000001B7E700E023A0E710EFF0EFD0F957E2
:102FC80017F7FF1F2300F708EF10001E23AEA18498
:102FD800EDB5973500009385E5F8138541BCEFF012
:102FE800AF8B01ED89471CA085472382F18CDD4515
:102FF800173500001305C5F791B729469735000026
:10300800938585F8138541BCEF2060282DE50307DB
:10301800A9009307D0031305803E6316F7001385B4
:10302800F1BCEFF08FC283C7618581C783C7418C2C
:1030380099C7E545173500001305C5F501B785673C
:103048001307C5F99387473263F9E7009305200210
:10305800173500001305C5F5D5B5A1471CA0854750
:103068002AA02382F18CEFF00F9BD545173500007D
:10307800130545F6E1B597350000938525F71385C7
:1030880041BCEFF06F811DE1FC240D4718A093B7F8
:103098001700FCA41CB085472382F18CEFF0BF8693
:1030A800E94517350000130525F549BD2146973533
:1030B8000000938525F6138541BCEF20401D39E1BA
:1030C8001385C1BCEFF06FB895671307F5FF9387B9
:1030D800F7E163E3E7029147334505081CA08547FC
:1030E800CAA40AA42382F18CEFF0FF81B9451735F1
:1030F80000001305E5F299B5FD45173500001305E5
:1031080025F32DBD314697350000938565F4138569
:1031180041BCEF20C01721E5138501BDEFF0EFB2E8
:10312800E54763F7A7029307F00F63C3A702914728
:103138001375F50F1CA08547E8B428A42382F18CE9
:10314800EFF06FFCCD4517350000130565F1FDB3B1
:1031580093053002173500001305C5F1C5B32146A4
:1031680097350000938545F3138541BCEF20201265
:1031780031E11385C1BCEFF04FAD1307F5FFCD4723
:1031880063E3E70291471375F50F1CA0854788A8EC
:1031980028B42382F18CEFF00FF7CD4517350000E6
:1031A800130545F061BB93051002173500001305A0
:1031B800A5F069B3254697350000938525F2138558
:1031C80041BCEF20C00C21E51385D1BCEFF0EFA77F
:1031D800130765FF9307E03D63E4E70291471CA0EE
:1031E800A947AAA43345F50285472382F18C08B084
:1031F800EFF06FF1BD45173500001305E5EE3DBB57
:103208009305000217350000130505EF05BB294695
:1032180097350000938585F0138541BCEF20200782
:1032280005ED1385E1BCEFF04FA26351A002914771
:103238001CA08547C8C048C02382F18CEFF0AFECD2
:10324800C14517350000130525EECDB9F9451735E9
:1032580000001305A5EEDDB12146973500009385E2
:10326800E5EF138541BCEF2080023DE11385C1BC29
:10327800EFF0AF9DC14763FCA700930705FC93F7E8
:10328800F7FB99CF930705F093F7F7EF29A0C177DC
:10329800B517B3D7A74889C7930700406313F5024A
:1032A8009147334505081CA085478AA42AA0238294
:1032B800F18CEFF04FE5B945173500001305C5EA65
:1032C800B5B993050003173500001305E5EABDB14C
:1032D80097350000938585ED138541BCEFE0DFDB72
:1032E80011ED91471CA085472382F18CEFF0AFE1E7
:1032F800D54517350000130525EC89B19735000031
:10330800938505ED138541BCEFE01FD905E562C043
:1033180003C8E400DE88D6875287DA864E8697355A
:1033280000009385A5EB8810EF107071B345050870
:103338008810B5A897350000938585EF138541BCA3
:10334800EFE09FD511C997350000938525EF1385C8
:1033580041BCEFE07FD439ED17360000130686EE46
:10336800973500009385C5EF8810EF10506D9305D1
:1033780090028810EFF07F9883C7618585C79947C9
:103388001CC023AE01BA85472382F18CFE406E44EF
:10339800DE444E49BE492E4A9E4A0E4BFA5B6A5C91
:1033A8002D618280FD45173500001305A5ECEFF06F
:1033B800DF94E9BF973500009385C5ED138541BCBF
:1033C800EFE09FCD15E9930550051735000013056B
:1033D800E5ECEFF09F921305800797E0FF1FE78069
:1033E800207A97E0FF1FE78020FE4DF1E145173571
:1033F8000000130525F099B697350000938545F12F
:10340800138541BCEFE05FC915E983C7618581C7B2
:1034180083C7418C99C7DD4517350000130545F072
:1034280031BE9D471CC023AE01BA85472382F18C6B
:10343800E94517350000130525F009B635469735D7
:103448000000938525F1138541BCEF105064631F7C
:103458000510138511BDEFE05FFF1384818908C053
:103468001307C002138511BD8307050081C7050531
:10347800E39CE7FE41468145EF10F07423AAA1883A
:103488001C402167FD1763E9E70093052002173503
:103498000000130525ED5DB4138731891C2399C7F6
:1034A800F94517350000130525EE49BC8547938972
:1034B80021891CA303C709000DE337E700E0B7061D
:1034C80010002320D7180F100000B7062000232073
:1034D800D7180F1000002380F90000408567FD17FA
:1034E8003E9431800149370A020063142403239A69
:1034F800018C239C018C239B018C2399018C23989C
:10350800018C2397018CBD4517350000130545EB49
:1035180035B48810EF0010469315C900856601463A
:10352800D295054597F0FF1FE780A098AA84065515
:1035380093F4F40FEF00104685C8A389018883C768
:10354800090089CFB7E700E03707100023A0E7108C
:103558003707200023A0E71023890188DD451735A8
:103568000000130565E4D9BA050941B73146973516
:1035780000009385E5E5138541BCEF105051631FAA
:10358800051683C7318999E7D94517350000130512
:1035980025E56DB2138501BDEFE03FEBAA89938461
:1035A80001BD1307C0028387040081C78504E39C1B
:1035B800E7FE0144930A0008138B41EA03850400DF
:1035C80039C9038A140063080A046312540383A7E1
:1035D800818963E33705B387374163EF870293F740
:1035E80039009DEBA286138741EA7D5689A0EFE05A
:1035F8005FE92A895285EFE0DFE8B367A90089040B
:1036080063CB07001209B30764013369A90023805B
:103618002701050465B745FCDD451735000013058E
:1036280065DF6FF0BF91B387E60090A3850693F737
:103638003600F5FB681036CEEF00D033F246B705FA
:103648000200138641EACE95094597F0FF1FE780EF
:1036580040869374F50F3255EF00D033D1E84E947D
:10366800854701C483440103814723089102141844
:10367800294793F5F70F19C0639CE504B7574B5DCD
:103688009387B7F5BED09810930700022302F1067E
:103698003A85B387B60005076395F6049387550006
:1036A80093F7F70F18089387070ABA9735472388BF
:1036B800E7FA9387650093F7F70F18089387070AC7
:1036C800BA979D0529472388E7FA93F5F50FC5B101
:1036D800B375E4023386F60085073354E4020CA27E
:1036E80049BF03C6F7FFFD171306060350A365B7C6
:1036F800E94517350000130525D055B99735000061
:103708009385C5D2138541BCEFE01F9961E183C75A
:10371800318989C7138481890C4081E9E9451735C6
:1037280000001305A5D16FF07F813786B8EDFD56EF
:1037380001473705020013060632B307E5009C234C
:10374800BD8EA14713F81600858263030800B18E69
:10375800FD1793F7F70FFDF70507E390E5FE93C60E
:10376800F6FF03A641896314D602FD45173500000C
:10377800130585CEEFF06FD81305400697E0FF1FBD
:10378800E7800040084097E0FF1FE78000C79735B3
:103798000000938565CE8810EF10702A93052003EA
:1037A8008810EFF08FD5A389018883C72189E38F1B
:1037B80007BCB7E700E03707100023A0E71037077A
:1037C800200023A0E71023890188C9B69735000097
:1037D800938545CD138541BCEFE01F8C0DE9A38986
:1037E800018883C7218989CFB7E700E03707100030
:1037F80023A0E7103707200023A0E71023890188BA
:10380800C545173500001305E5CA6FF02FF34D467F
:1038180097350000938545CB138541BCEF103027C1
:103828006313050C83C7618581EBED4517350000EF
:103838001305C5CA6FF08FF0938441889C2081CB13
:10384800F14517350000130525CB6FF02FEF1385D1
:1038580071BDEFE09FBF1384018808C01307C00241
:10386800138571BD8307050081C70505E39CE7FE45
:1038780041468145EF103035184023AEA186A16737
:103888009306F7FFE3F3F6C09387C1B6D8C3BA230C
:1038980088C705440507056580A3BAA3130505FA7B
:1038A80023880188A3888188EFF00FA905C503C67E
:1038B800918809EA80A0D545173500001305C5C5CC
:1038C8006FF0CFE797350000938585C68810EF1015
:1038D8001017A9BCA3880188ED451735000013050A
:1038E80025C76FF0AFE5494697350000938505C8B1
:1038F800138541BCEF10B019631E050E83C74188BC
:1039080081EBF14517350000130585C76FF00FE30C
:10391800138561BDEFE07FB32A89138461BD130766
:10392800C0028307040081C70504E39CE7FE014643
:10393800130A00040305040049CD83091400638AAF
:10394800090863144607B304C90083A7018863E321
:1039580097081384C1B689478C10138581B71CA0BA
:103968002322240110B0EFE0CFF03E201305007DA4
:1039780085073EA0238801888547A388F188EFF052
:10398800AF9B25C103C6918897350000938505C272
:1039980011E6268697350000938585C00818EF1034
:1039A800100AB3450508081819B432CEEFE07FAD08
:1039B800AA844E85EFE0FFACB3E7A4007246090481
:1039C80063C907009C109204B297C98C84A30506AA
:1039D80095B735FAF545173500001305E5C06FF0C2
:1039E800EFD5A3880188E94517350000130505BE02
:1039F8006FF0CFD497350000938505C1138541BC7E
:103A0800EFE08FE951E983C7418881C703A701889F
:103A180009EB9305000217350000130525C06FF068
:103A2800EFD19387C1B6D8C303A7C18798C7BA2374
:103A38008D4694A30507BAA30565238801888547A1
:103A4800130505FAA388F188EFF00F8F0DCD938742
:103A58008188983319EB2382018893055002173522
:103A680000001305E5BD6FF06FCDD043973500001A
:103A7800938585BF881023820188EF10407C9305C9
:103A880090026FF0FF8AA3880188F145173500007E
:103A9800130505C06FF08FCA97350000938545C19F
:103AA800138541BCEFE04FDF1DE52382018883C702
:103AB800618599CB9387C1B6114798A3BA230507A7
:103AC800BAA38547A388F188DD451735000013059B
:103AD80065BF6FF0AFC6DD4517350000130505C09B
:103AE8006FF0CFC5011122CC2A840A8506CE26CADA
:103AF800EF00406883C7D18BA9CB2D4681451305BC
:103B08005100EFE06FD803C7E18B9387018CBA9718
:103B18009C2331464C0022855C82EFE08FD583C719
:103B2800E18B8507858B9384D18B238FF18A9C2029
:103B3800FD1793F7F70F9CA085440245A12DF2408D
:103B480062442685D2440561828083C4418CF5D4C1
:103B58003146938581BB2285EFE0AFD12382018C6A
:103B6800238C01BAD1BF03C53189828037A70300EE
:103B78001443B7A75A5A9387575A6399F606584376
:103B880097E7FF1F9387C74411C3D8C337A703001C
:103B98001A2711C39AA737A703003A27A54663F344
:103BA800E600BAA737A703005A2711C3DAA737A731
:103BB80003007427F4A77837E54663E5E60045EB8C
:103BC8001307F00F9627F8B741476395E6001307E8
:103BD80000049AA737A70300182B4D469306F7FF52
:103BE80093F6F60F6373D600114798ABB7160040EB
:103BF8009E2E65777D17F98F0D67D98F9EAEB78793
:103C0800004023800700130740FCD8A71307C0040F
:103C1800D8B71387412A9AAB13874122DAAB1387A7
:103C2800411A9AAF13874112DAAF09472381E70295
:103C38002383E7022385E7022387E7022389E70234
:103C4800A3810700130700F898B31307900298A3FD
:103C58007D57F8A31D47B8A3B706400037E700E033
:103C68002320D71098331367170098B382806947C9
:103C780091BF411106C6EFE01FDB239101862D237A
:103C880023ACA18623AAA18623A8018623A6A18600
:103C980083A7418A23A4F186A3830186938781B5EC
:103CA80023A0070023A2070023A4070023A60700D8
:103CB80023A80700B2408547A382F186410182808C
:103CC800011106CE22CC26CA4AC84EC652C456C2D4
:103CD8005AC083C7518691E3693F83C7118AD1E7E8
:103CE800E1212A841D299307703E854463F6A700C5
:103CF8009304803EB3549502E94717E9FF1F03492F
:103D0800192E3379F90A83C761859389C186A5EB92
:103D18009307A00F9386818798423307E440B387BF
:103D2800F402636EF700138761861C2380C293B682
:103D3800170014A391C301494A85EFE05FCC23AA79
:103D4800818623A8018683A7418A23A4F18623A01C
:103D58008900A383018623AC01B423AE01B423A058
:103D680001B623A201B623A401B6F2406244D244AC
:103D78004249B249224A924A024B0561828093071E
:103D8800803EB387F40203A30900138781B5B30605
:103D9800644063E0F606B3D6F602938E418A138E2A
:103DA800818683250E0003A60E00138871860145BF
:103DB8000D8E95457D5F954FB3D6B60A83450800AD
:103DC800B688FD18639BE80F19C12300B800B387B4
:103DD800D7028345080041657D153356A60AB3C549
:103DE800E52090C103A60E009A972320CE0023A0B9
:103DF800F90014435C43B6971447B6975447184BD9
:103E0800B697BA97F1C71307F03F1306803E636B66
:103E1800F7001307007DB387E7020566130686BB24
:103E2800A9831D8E938A418703AB0A00138A0187F1
:103E380033046441636A940233549402C169FD19DE
:103E48008146B3848402B355340B13950501C181AF
:103E5800EF10400583270A00AA97B3F73701DA94D1
:103E68002320FA0023A09A0083270A0013070004DE
:103E78009A07C1836362F706130700026376F700A7
:103E880013070004B307F7401737000013078787A5
:103E9800BA9788239307F00F624433052503F2404D
:103EA800D2444249B249224A924A024B05613355EB
:103EB800F5021375F50F6FE09FB4850533F5F5032B
:103EC8009375F50F3345E520232005000545D5BD3D
:103ED8000566130606FAB9B79307000455B74111EA
:103EE80006C6EFE05FB4239001867D2CB24023AE76
:103EF800A1844101828083C7118A639E070E411104
:103F080006C622C426C24D24AA84012C9387818A1E
:103F18009843014415C315473305E5029C43B3870D
:103F2800F440636BF500856703D4C18A93872780C3
:103F38003374F40A33440408CD229307703E0547CE
:103F480063F6A7001307803E3357E5029386C185C1
:103F58009C42B387F44063EBE70884C2C166FD1650
:103F6800B3D7E70213074006B3D7E70AB386D702E9
:103F78001387C72B854763E4E600B3D7E6021386A9
:103F880001861A22637C87023305E440A166FD1688
:103F98008545B307F502B697C1661388E6FF6375D2
:103FA800F800FD16B3D5D7022E9763EEA50202A23C
:103FB8002244B240924441016FE00FD1E37AE4FE1B
:103FC80033058740B387A702A166FD168545B697D6
:103FD800C1661388E6FF6375F800FD16B3D5D702EE
:103FE800E3F7A5FC0D8F33440708D1B7B24022444C
:103FF8009244410182808280011122CC06CE138432
:1040080031891C2099E3EFE00FA283C7518C99C72F
:10401800EFE01FD62393018CA382018C6800992AB4
:104028001C2099E3EFE05FA7EFE0DF9332459D2284
:104038001C2099E37131C13583C7118A91E3AD2200
:10404800F240624405618280371700408347E704E5
:1040580012054111BD8BC98F93F7F70F930680089E
:10406800F3B6068093F6860836C60F10000093064E
:1040780070052300D704930680FA2300D7040F1095
:1040880000002307F70423000704B247F3A70780BB
:104098000F10000041018280914763ECB704972715
:1040A80000009387677DB3C5F52098413E97B71701
:1040B80000409387470B0287944337170040B3F6B5
:1040C800A64094C39306070B9C42B3F7A74019A8D0
:1040D800944337170040B3F6A64094C39306070BE2
:1040E8009C42C98F9CC29307070A98433377A7401D
:1040F80098C38280944337170040C98ED9B7984334
:104108003377A74098C3B71700409387070A9843A7
:10411800498FF9BF9843498FF5B7B71700409827DB
:104128009306000C1377070C6315D70003A5818E3F
:1041380082809827930600041377070C6310D70230
:10414800942713070002FD8A99C298277D8B37456B
:10415800C323130505603345E502828094271307BE
:104168000002FD8A99C298277D8B3755E80113050F
:104178000580D5B737E700E01C435443A183E20626
:10418800D58F1CC1FD572320F7182322F7180F10CD
:104198000000828013178500B7E700E023A0E7102E
:1041A800618123A2A7108280B7F700E08847828048
:1041B8009386C181AA87884213878138AA9763E9C1
:1041C800E7000A87130707FC6364F7009CC2828034
:1041D8007D5582801841411106C69387413698C3A0
:1041E800584117C5FF1F130565EAD8C36D20B240B3
:1041F80001454101828001114EC69389C13603A74A
:10420800090006CE22CC26CA4AC852C456C2144354
:10421800B707FDFF1384F7FFB3F786001CC31C43E1
:10422800370A020013890138E18FB3E747011CC33D
:1042380003270900B7063300938A41371C47B704A0
:104248000F00D58F1CC783A70A001387845D93844A
:104258000408B8CBAD2C7521812AE52283A60A0073
:1042680003A70900416623A446011C43E18FD18FAF
:104278001CC3032609003707CEFF7D171C46F240F2
:104288006244F98F1CC6A4CA4249D244B249224AA0
:10429800924A05618280B7C7004013870720011141
:1042A8009387071023AAE13637D7004006CE2AC6DF
:1042B80023A0E13823A6F1368D2897C0FF1FE78099
:1042C8000077153F3245F24023A6A18E01450561CE
:1042D800828083C7413803C7018F1D8F930700026F
:1042E800898FB387E702A14601459305700212053D
:1042F800FD1633C6B702BA97518DF5FA828003C707
:10430800513883C74138B306F7401D05998FB387E5
:10431800A702214701459305700212057D1733C690
:10432800B702B697518D75FB8280938701389C43FD
:1043380013070048B70600F998D7D85FFD16B705E8
:104348000040758FB7060002558FD8DFD85F370653
:10435800FAFF7D160E070D834D8FD8DF945BF18E23
:1043680094DB985BB7060090FD16758F4D8F98DB30
:10437800B847B706F9FFFD16758FB8C7B84BB7062B
:1043880007001377F78F13670730B8CBF84F558FAF
:10439800F8CFF84FB7060007558FF8CF93074006B8
:1043A8000100FD17F5FF8280138701381C43417611
:1043B8007D16B44BF18EB4CB944737062000D18ECE
:1043C80094C7D44793E60601D4C7D447BD9AD4C747
:1043D800010001000100010014430566DC4693E773
:1043E8000701DCC6DC42D18FDCC29387413790439A
:1043F800930740067CD27C5291C783A7C609A18344
:10440800858BF5DB010001000100010018434166BE
:104418008327C709FD8BA38EF136344BD18E34CB5D
:10442800344B3706E0FF7D16819ADD8E34CB144776
:10443800F18E14C70D476375F700F517238EF13613
:104448008280938701389C4341777D17B44F41663A
:10445800F98EB4CF9447D18E94C7D44793F6F6EF2C
:10446800D4C7D443758FD8C3D44793E60610D4C7AE
:10447800D843518FD8C38280938701389C431375E2
:10448800F51F8176D8439386F60F799BD8C3131707
:104498008500885F758D598D88DFD84313671700AD
:1044A800D8C31387413714430967130707F4F8D2B1
:1044B80003A70709131657006358060003A707093F
:1044C8001316670063440600F8527DF38280411199
:1044D80022C4138401381C4006C6FD76D843FD1655
:1044E8001377F7EFD8C39857758F98D7D857B7066B
:1044F80002003D9BD8D79847558F98C7D843136774
:104508000701D8C3856703D7A13793874723630774
:10451800F71E1305F00B8D3718401305700E83270F
:10452800070993F7F7032388F18E83274709A9839F
:1045380093F7F707A388F18E813718401305300DDC
:104548008327070993F7F703A382F13883274709DD
:10455800A98393F7F707238FF136393F184083274C
:10456800070993F7F7032382F13883274709A983BB
:1045780093F7F707238CF13600400145993B232038
:10458800A40A2145B9332322A40A41459933232497
:10459800A40A61453D3B2326A40A13050002153BE6
:1045A8002328A40A0545A13B232AA40A2545813BC3
:1045B800232CA40A4545A133232EA40A654581333B
:1045C8002320A40C130510021D3B2322A40C83C531
:1045D800513803C54138B305B5409307A002B387E6
:1045E800F502130790029306800203C8E137A14839
:1045F800130300023387E502B3C7D7023347D70254
:104608009207A946D98F2324F40C83C781373386B0
:104618000741B306D6023308F840032E840C33C78B
:10462800B602C29613678700331717013367C701AD
:104638002324E40C9108E39268FE2326040C0A065E
:104648000147C148B346B6020323C40C429693E619
:104658008600B396E600B3E666002326D40C11075D
:10466800E31217FF83C6118F83C5018F9D8E898D35
:104678000148930800023346B8020323C40C369855
:104688003316E600336666002326C40C1107E314CC
:1046980017FF139826000146F1483347B802032351
:1046A800040D36983317C700336767002328E40CD6
:1046B8001106E31416FF584085661375F5033D9BF4
:1046C80058C0584093F7F707E207799B58C0185429
:1046D800558F18D45854B7060081FD161367070183
:1046E80058D4185C137707FC498F18DC185C758F51
:1046F800D98F1CDCB240224441018280239D0136BF
:10470800A5BD9387013898435C4393E707105CC3C2
:104718008280014863C8050E63DB0600B337C0001A
:10472800B306D0401348F8FF9D8E3306C040B288C8
:104738002A872E83F9E263F2C512C167636CF61A01
:10474800B7070001B337F600B307F040E19BE10774
:10475800335EF6009726000093864613F29694225D
:10476800130E0002B697B306FE40630CFE003393A7
:10477800D500B357F500B318D60033E367003317F5
:10478800D50013D608013355C302B3C6080893579A
:1047980007013373C302B385A6024203B3E7670078
:1047A80063FAB700C6971303F5FF63E4170163E8DC
:1047B800B7321A858D8FB3D5C70233470708B3F7C9
:1047C800C702B386B602C2075D8F637BD7004697E0
:1047D8009387F5FF63651701F9156363D700BE85F5
:1047E80042054D8D814563090800B337A000B30524
:1047F800B0409D8D3305A040828063FED500814581
:104808000145D5B7B337A000B305B0409D8D33053A
:10481800A0407D5811B7C16763E4F618B7070001D7
:10482800B3B7F600B307F040E19BE107B3D8F60051
:10483800172700001307870546971823130300025C
:104848003E97B308E3406311E31863ECB6263335AB
:10485800C50013451500814579B75DC2C167637A04
:10486800F62413330610134313000E03B3566600E1
:104878009727000093878701B69794239307000230
:104888009A96B38ED740639CD708B386C5408545B2
:10489800135306013346060833D5660293570701BA
:1048A800B3F66602330EC502C206D58F63FAC70196
:1048B800C6979306F5FF63E4170163EFC7213685B2
:1048C800B387C741B3D6670233470708B3F7670210
:1048D8003386C602C2075D8F637BC70046979387FE
:1048E800F6FF63651701F9166363C700BE864205C4
:1048F800558DD5BD9337061093C717008E0789BD10
:10490800814697270000938767F8B6979423014359
:10491800930700029A96B38ED740E388D7F6B31868
:10492800D60133DED50013D30801B3576E02B35650
:10493800D5003317D50133C60808B395D501CD8EF8
:1049480093D50601337E6E023305F602420EB3E5B7
:10495800C50163FBA500C695138EF7FF63EA15171B
:1049680063F8A516F917C695898D33D56502B3C6C0
:104978000608B3F56502330EA602C205CD8E63FBA9
:10498800C601C6969305F5FF63E0161563FEC613C8
:104998007915C69693950701B386C641C98DEDBDB5
:1049A80093B7061093C717008E07B3D8F6001727DA
:1049B80000001307A7ED46971823130300023E973C
:1049C800B308E340E303E3E8B35EE600B3961601F9
:1049D800B3EEDE0033D3E50013DF0E01B357E30374
:1049E800B39515013357E5004D8F33CE0E08935616
:1049F8000701331616013373E303B305FE024203BE
:104A0800B3E6660063FBB600F6961383F7FF63E32D
:104A1800D60D63F1B60CF917F6968D8EB3D5E6036D
:104A280033470708B3F6E6033303BE02C206558FC1
:104A3800637B670076979386F5FF6369D709637789
:104A48006708F9157697C207416FCD8F9306FFFF68
:104A5800B3F5D70013DE0701F18E4182B38ED5027C
:104A680033076740B306DE0213D30E01B385C502D0
:104A7800B6959A95330ECE0263F3D5007A9E93D6F7
:104A88000501F2966363D7026305D7003E85814529
:104A980099BBC166FD1633F7D5004207B3FEDE00A9
:104AA800331515017697E373E5FE1385F7FF814506
:104AB8001DBBB70700016377F60293560601414311
:104AC80045BB8145054505B32E85E9B5B685A5BF26
:104AD800F28759BD9A8791B77915C697D5B37915D5
:104AE800C697C9B993568601614359B3014763C64E
:104AF800051263D90600B337C000B306D0409D8EB7
:104B08003306C04032882A832E8ECDEE63F0C5125C
:104B1800C167636DF618B7070001B337F600B3072E
:104B2800F040E19BE107B358F60097260000938612
:104B3800E6D5C6969422930E0002B697B388FE4037
:104B4800638CFE00339E1501B357F5003318160128
:104B580033EEC7013313150113560801B356CE02BD
:104B6800B345080893570301337ECE02B386B602D5
:104B7800420EB3E7C70163F7D700C29763E40701A2
:104B880063ECD730958FB3D6C70233450308B3F724
:104B9800C702B386B602C2075D8D6378D500429519
:104BA800636505016373D5004295158D335515016D
:104BB800814501CBB337A000B305B0409D8D3305C7
:104BC800A0408280E3E7D5FEC16763EDF616B7071C
:104BD8000001B3B7F600B307F040E19BE107B3D893
:104BE800F60017280000130868CA4698034808000A
:104BF800130E00023E98B3080E41631A0E1763E4C1
:104C0800B600636AC5003303C540B386D540B335E3
:104C18006500B385B6401A8569BFB337A000B305F0
:104C2800B0409D8D3305A0407D57E1B551C6C167A1
:104C38006378F6249336061093C616008E06B3588A
:104C4800D60097270000938767C4C6979C23130E46
:104C58000002B697B308FE40631FFE06B386C54040
:104C6800135E060133460608B3D5C60393570301FE
:104C7800B3F6C603B385C502C206D58F63F8B7007D
:104C8800C29763E5070163F3B700C2978D8FB3D668
:104C9800C70333430308B3F7C703B386C6021395A4
:104CA80007013365A300E372D5F0D5BD933706102D
:104CB80093C717008E0785BD814897270000938703
:104CC800E7BCC6979C238146130E0002B697B3082B
:104CD800FE40E305FEF833181601B3DEF500135E57
:104CE800080133DFCE03B3951501B356F500CD8E19
:104CF8003346080893D7060133131501B3FECE03D4
:104D0800B305CF02C20EB3E7D70163F8B700C29765
:104D180063E5070163F3B700C2978D8FB3D5C70367
:104D2800B3C60608B3F7C703B385C502C207DD8E4D
:104D380063F8B600C29663E5060163F3B600C2964F
:104D48008D8E1DB793B7061093C717008E07B3D87B
:104D5800F60017280000130868B3469803480800AF
:104D6800130E00023E98B3080E41E30A0EE9B3960B
:104D78001601335306013363D300B3DE0501935F95
:104D88000301B3D7FE03B3560501331E1501334F94
:104D98000308B3951501D58D93D605013316160171
:104DA800B3FEFE033305FF02C20EB3E6D60163FB72
:104DB800A6009A96938EF7FF63EE660C63FCA60C2A
:104DC800F9179A96898E33D5F603B3C50508B3F655
:104DD800F603330FAF02C206D58D63FBE5019A9542
:104DE8009306F5FF63E6650A63F4E50B79159A9572
:104DF80093960701C163C98E1385F3FFB3FEA6001E
:104E080093520601C182718DB38FAE02B385E5411D
:104E18003385A60293D70F01B38E5E02AA9EF6973A
:104E2800B386560263F3A7009E96416F7D1F33F544
:104E3800E70193DE07014205B3FFEF01B387DE0008
:104E48007E9563E6F5026382F5023305AE40333E94
:104E5800AE009D8DB385C5413398050133551501C5
:104E68003365A800B3D51501A9B3E370AEFE3306C8
:104E7800C5403335C5002A93B38767403285F1B7FB
:104E8800B7070001637CF60093580601C14655BB7D
:104E98003685B9BFF6873DB7C297EDB193588601FD
:104EA800E14645B33288AA882E87CDEA63FFC50E4E
:104EB800C167636AF618B7070001B337F600B3078E
:104EC800F040E19BE1073353F600972600009386F4
:104ED800E69B9A96942213030002B697B306F34012
:104EE800630BF3003397D500B357F5003318D6009A
:104EF8005D8FB318D500135608013355C702B34662
:104F0800080893D708013377C702B385A60242077A
:104F1800D98F63FAB700C2971307F5FF63E4070157
:104F280063E8B7303A858D8F33D7C702B3C808080E
:104F3800B3F7C702B386E602C207B3E8F80063FB1B
:104F4800D800C2989307F7FF63E50801791763E370
:104F5800D8003E874205598D8145828063F5D5008A
:104F6800814501458280C16763E5F618B7070001EE
:104F7800B3B7F600B307F040E19BE10733D8F6007A
:104F880017270000130787904297182393080002F9
:104F98003E973388E8406392E81863EDB6263335C8
:104FA800C500134515008145828045C6C167637BEE
:104FB800F62413370610134717000E07B356E600FA
:104FC800972700009387878CB6979C239306000247
:104FD800BA97B38EF640639DF608B387C5408545FA
:104FE800935606013346060833D5D70213D708016E
:104FF800B3F7D7023303C502C207D98F63FA670034
:10500800C2971307F5FF63E4070163E067223A8557
:10501800B387674033D7D702B3C80808B3F7D702B6
:105028003306C702C207B3E8F80063FBC800C2989A
:105038009307F7FF63E50801791763E3C8003E8724
:105048004205598D82809337061093C717008E0743
:105058009DBD81469727000093874783B6979C2379
:10506800014793060002BA97B38EF640E387F6F637
:105078003318D60133D3F50093560801335ED302B3
:10508800B395D501B357F500CD8F3346080813D72C
:105098000701B318D5013373D302B305C60342031E
:1050A80033676700637BB70042971305FEFF636AA7
:1050B80007176378B716791E42970D8F3355D702B5
:1050C800B3C707083377D7023303A6024207D98F3D
:1050D80063FB6700C2971307F5FF63E0071563FEDC
:1050E80067127915C29793150E01B3876740C98D6A
:1050F800E5BD93B7061093C717008E0733D8F6009F
:10510800171700001307877842971823930800029F
:105118003E973388E840E382E8E8335EE600B396DA
:105128000601336EDE00B3D8E500935E0E01B3D7F7
:10513800D803B39505013357E5004D8F33430E0867
:105148009356070133160601B3F8D803B305F302E3
:10515800C208B3E6160163FBB600F2969388F7FF20
:1051680063E3C60D63F1B60CF917F2968D8EB3D5CD
:10517800D60333470708B3F6D603B308B302C2060B
:10518800558F637B170172979386F5FF6369C7098B
:1051980063771709F9157297C207C16ECD8F938689
:1051A800FEFFB3F5D70013D30701F18E4182338E8A
:1051B800D50233071741B306D30293580E01B385BE
:1051C800C502B695C6953303C30263F3D50076933B
:1051D80093D605019A966363D7026305D7003E8587
:1051E80081458280C166FD1633F7D5004207337EBC
:1051F800DE00331505017297E373E5FE1385F7FFAB
:1052080081458280B70700016377F602935606014D
:1052180041477DB38145054582803A85E9B5B68524
:10522800A5BF2A8E59BDC68791B77915C297CDB348
:105238007915C297CDB993568601614751B3357137
:105248003ECBB7070080FD173ECE3EC8C17732C5BA
:1052580036C72AC42ACC9387872034012E8603A513
:1052680001822C0086DE3ECA3AC942CD46CF36C2FC
:10527800352CA24723800700F6500D618280AA874B
:105288009823850775FF3385A7407D15828015C251
:105298007D160147B307E500B386E5009C239422F9
:1052A8006396D7006304C7000507EDF73385D74039
:1052B8008280014582802A8FAE871713000013036E
:1052C800F36CBE88982385073305670003480500FB
:1052D80013788800E31708FE1305D002631EA7049D
:1052E8009823854F93872800ADE293060003630156
:1052F800D708A9467D58335ED80281480145A542A2
:10530800E54EFD533373D802130807FD63EA02071D
:1053180042876355D708638D7800FD58636AAE00ED
:105328006314AE006346E30085483385A6023A95C8
:10533800850703C7F7FFC9BF1305B002814FE315FF
:10534800A7FA98239387280045B74145E394A6FA1E
:1053580013050003E310A7FA03C807001305800527
:105368001378F80DE318A8F89833C146890759B798
:1053780003C8070013058005A1461378F80DDDB7AB
:105388001308F7FB63E50E01130797FC59B71308D9
:10539800F7F963E50E01130797FAA5BF7D576399DF
:1053A800E800130720022320EF007D5509EA8280D8
:1053B80063840F003305A04011C6638408009385F9
:1053C800F7FF0CC28280B2862E86AA8503A50182C9
:1053D800DDB501114AC803A9850022CC4EC652C4C6
:1053E80056C206CE26CA5AC003AA05002E84B28A1F
:1053F800B68963E426078397C50013F7074821CFCA
:1054080058488D448C49B384E4020947330ABA40AA
:1054180093F707402A8BB3C4E40213871600529708
:10542800B3F4E40ABDC3A685B92F2A893DC50C4843
:105438005286EFC01FC45E2493F7F7B793E70708B7
:105448005EA42328240144C85299B38444412320EC
:10545800240104C44E8963F329014E8908404A8611
:10546800D685EFC0BFC41C440145B38727411CC47F
:105478001C40CA971CC0F2406244D2444249B24917
:10548800224A924A024B056182802686EF00C07F3D
:105498002A8945F90C485A85F52BB1472320FB008A
:1054A8005E247D5593E707045EA4F1B7DE253571C8
:1054B80022CD26CB4AC952C506CF4EC756C35AC1BC
:1054C800DEDEE2DC93F707082A8A2E89B284368466
:1054D8009DCF9C498DEF9305000475252320A900D5
:1054E8002328A9000DE1B1472320FA007D55FA4091
:1054F8006A44DA444A49BA492A4A9A4A0A4BF65B44
:10550800665C0D61828093070004232AF9009307E3
:105518000002A304F1029307000302D22305F1025B
:1055280022C6930B5002971A0000938A6A56294B99
:1055380026841C2099C363977709330C9440630D24
:105548009400E2862686CA8552856135FD57630434
:10555800F5189257E2973ED21C20638E0716FD5726
:105568009304140002C802CE3ECA02CCA309010467
:1055780082D48C20154656851123C2471384140003
:1055880021E513F7070109C713070002A309E1047E
:1055980013F7870009C71307B002A309E104942091
:1055A8001307A0026389E602F2472684814625464E
:1055B800182093051400130707FD6372E60685C6D5
:1055C8003ECE15A00504B5B733055541B397A728B6
:1055D800A2843EC879BF324793064700184336C6AF
:1055E800634807023ACE18209307E002631CF704C9
:1055F80018309307A002631AF702B2470904138709
:1056080047009C433AC67D57B3E7E70A3ECA1DA840
:105618003307E04093E727003ACE3EC8E9B7B3879F
:1056280067032E848546BA9761B7050402CA814686
:1056380081472546182093051400130707FD637258
:10564800E606E9F60C200D46171500001305C544BB
:10565800352111CD97170000938707441D8DC24748
:10566800130700043317A700D98F05043EC80C2080
:105678001946171500001305654293041400230406
:10568800B102ED2E2DC19307000095E74247B247BE
:105698001377071009CF91073EC69257CE973ED28F
:1056A80041BDB38767032E848546BA9761B79D07C6
:1056B800E19BA107D5B77800970600009386A6D18D
:1056C8004A860C08528597000000E7000000FD5745
:1056D800AA89E314F5FC8357C90093F70704E397F5
:1056E80007E0125529B57800970600009386A6CEE4
:1056F8004A860C0852853922D9BF797156CA9C4905
:10570800BA8A984522D44AD04ECE52CC06D626D252
:105718005AC85EC6B3E7E70A1CC203C73504AA899C
:105728002E843289368A19C385071CC21C4093F718
:10573800070291C78327090089072320F90004403D
:10574800998891E8130B9401FD5B5C4403270900D9
:10575800998F63CCF40483473404B336F0001C40BB
:1057680093F70702A5EB13063404D2854E85829A77
:10577800FD576303F5041C4011478144998B6399D5
:10578800E7008327090044449D8C8147B3E4F40A69
:105798001C4418486354F700998FBE940149690462
:1057A8007D5B63982405014509A885465A86D285FC
:1057B8004E85829A631E75017D55B25022549254CB
:1057C8000259F249624AD24A424BB24B4561828041
:1057D8008504A5BF3307D40013060003A301C7043B
:1057E8000347540493871600A2978906A381E70408
:1057F8009DBF85462286D2854E85829AE30E65FB3B
:10580800050945B7797122D44AD04ECE52CC06D676
:1058180026D256CA5AC803C88501930780072A8921
:105828002E84B289368A63E207039307200693869B
:10583800350463E10703630B081C930780051716FB
:105848000000130626266307F81493042404230192
:10585800040515A89307D8F993F7F70F5546E3669B
:10586800F6FE1716000013066626B3C7C7209C432A
:10587800B29782871C4393842504938647009C43F0
:1058880014C32381F504854765A290411C43137511
:1058980006089385470029C19C430CC3584063DE22
:1058A80007129305D002A301B40418C4635E07026B
:1058B800B307F040171600001306C61E2948B68421
:1058C80033F70703FD143297182398A03E87B3D700
:1058D8000703E37707FF85A09C43137506040CC3F1
:1058E80055DD939757605DBF6D9A10C0D1B7904151
:1058F8001C43137506089385470001C50CC39C43D8
:1059080031A0137606040CC37DDA9E231307F00634
:105918001716000013060619631FE80A2148A30199
:105928000404584018C4E34C07F80C40ED990CC027
:10593800D9F7B68449F7A147631EF8001C40858B48
:1059480091CB58401C4863C7E70093070003A38F17
:10595800F4FEFD14858E14C85287CE867000A28589
:105968004A85613BFD5A6319550D7D55B250225445
:1059780092540259F249624AD24A424B45618280A6
:105988009C4193E707029CC1130880071716000083
:1059980013068612A30204050C401C4313F80508DD
:1059A800138547006305080008C39C4339A013F812
:1059B800050408C3E30B08FE9E2313F7150001C76F
:1059C80093E505020CC099C3414891BF184013776D
:1059D800F7FD18C0D5BF294899B717160000130658
:1059E800660C29483DBF90411C43CC4913780608F2
:1059F800138547006306080008C39C438CC339A07D
:105A080008C3137606049C4375DA8EA32328040082
:105A1800B68499B71C43D04181459386470014C387
:105A280084432685A12801C5B30795405CC05C4026
:105A38001CC8A30104040DB714482686CE854A85E0
:105A4800029AE30455F31C40898B85E74844B24722
:105A58003365F50A21BF85465686CE854A85029A62
:105A6800E30565F185045C443247998FE3C5F4FE8C
:105A7800F1BF8144930A94017D5BF5B793F5F50F67
:105A88002A966314C500014582801C21E38EB7FE67
:105A98000505C5BFD1CD83A7C5FF011122CC06CE10
:105AA8001384C5FF63D307003E942AC68D2C138741
:105AB800818F1C43324581EB2322040000C36244DA
:105AC800F240056185A4637DF4001040B306C4006C
