:040000006F1090628B
:100004000000000000000000804400005819002097
:10001400A9BDF9F3804400000000000000000000C6
:100024008044000080440000000000000000000044
:100034008044000000000000804400000000000034
:100044000000000080440000000000008044000024
:10005400D60D0020CE0D00208044000000000000DA
:100064000A150020000000000000000058150020C0
:10007400804400008044000080440000804400006C
:1000840000000000804400000000000080440000E4
:10009400411122C406C6937725002A8495C7938705
:1000A40001589C433707020023A2070698C78177AB
:1000B400FD17138701573374F5005C43C18B89C75F
:1000C4001C43814541458297937714009DCF9387C4
:1000D40001589C433707020023A2070698C7352915
:1000E40093870157D84319E9058B15CF03A307005C
:1000F400814505452244B24041010283218B05C755
:1001040003A3070081452145F5B79317E40063DC99
:100114000700138701575C43918B91C703230700A2
:1001240081451145C1BFB24022444101828093F709
:10013400150085E3938781579843B7B724009387C5
:10014400F7E963ECA7061C4393F707F893E7570214
:100154001CC38547631DF60093F7050313070003CB
:100164006395E70CE5818D89E1E5130505839387A4
:10017400C1589C434166130606A0D857B70510FE24
:10018400FD1513672700D8D73357C5023375C50249
:100194007D8B93164701F8436D8F558FF8C3130772
:1001A400A00FB706FCFF2A053355E502F843758F07
:1001B4003A053981598DE8C38280B70725009386B3
:1001C400F74863E3A602B767DBFF93870793AA9711
:1001D4009306007DB3D7D702FD17144393F7F707AF
:1001E40093F606F8D58FADB7938707496318F500E2
:1001F4001C4393F707F893E7670299BFB7D7250025
:100204009387F77763EDA700B767DBFF93870793BF
:10021400AA979306007DB3D7D702F9177DBF1C4375
:1002240093F707F893E7770225B74147E38FE7F29F
:10023400130585C12DBF630605145C490947638313
:100244000714411126C2938401589840914706C669
:1002540022C44AC02313F7001C438D8B89C71C4357
:1002640093E787001CC31389815783270900B706C6
:10027400FDFF1386F6FF8C432A84B3F6C50094C3AE
:100284009443B7053300F18E37060200D18E94C330
:100294009386C1589442484590464D8E90C6370681
:1002A4000F001306861D30CB37272300130707865C
:1002B400637EA70A0C4805469D3D1C48918B85C367
:1002C40083260900034784019C4293F70704D98FCE
:1002D400984293F7F707137707F8D98F9CC2084819
:1002E400832709001377150019CB98431377F70375
:1002F400936607049843137707F8558F98C31840FB
:10030400370600FF37090200B8D303474400F8D387
:100314001844B8CF185093168700F84FA182718FF4
:10032400558FF8CF9C4058480146F8DF23A20706B2
:1003340023A4270183459401BD2394404C4C854755
:100344009CC2014789CDD0468177FD17F18FDCC669
:100354000F1000009C4023A42701ECD3D0C7B24067
:100364002244924402493A8541018280D856759BC1
:10037400D8D61377F5078843137505F8598D88C3C4
:10038400B9BF05473A85828001114AC813890158CB
:100394000326090022CC26CA06CE4EC61C429384EC
:1003A40081572A8493E787001CC20347B5019C4008
:1003B4001367070493169701D85B1E071D83558F97
:1003C400D8DB0347A5012313E600D85B719B1367B1
:1003D4001700D8DB8C433707FDFF9306F7FF33F78D
:1003E400D50098C39843B7053300758FB70602004C
:1003F400558F98C31387C158184348451447CD8E69
:1004040014C7B7060F009386862D34CAB726230077
:100414009386068663F1A60A0C480946093B1C48E4
:10042400918B99CF9440034784019C4293F707042E
:10043400D98F984293F7F707137707F8D98F9CC29F
:1004440018489C40058B19CB98431377F7039366A0
:1004540007049843137707F8558F98C31840544CF2
:10046400B7090001D8C703474400370600FF2285B7
:1004740098CB1844D8C31387F9FFF98E9847718F26
:10048400558F98C7832709005848B8DF55249C40E6
:10049400014598433367370198C3D85B719BD8DB18
:1004A40083270900F2406244094798C3D244424971
:1004B400B249056182805457F59A54D71377F507EA
:1004C4008843137505F8598D88C39DBF93870158D8
:1004D4009C439847D447F98E99CA9386818C03A389
:1004E400060098C763050300C847798D028382809C
:1004F4009387815798433C439983858B91CF930786
:1005040000063CC3938701589C433707020098C7F1
:100514001387C1571843F8D38280938781579C432C
:10052400A843158105898280938781579843136571
:10053400050466055C5B9E079D83C98F5CDB828036
:100544009387C1583727230094431307078693875B
:1005540081579C436376A70E37B724001307F7E946
:100564006365A7069843137707F81367570298C380
:1005740093F7150081CB93F50503C147639FF50AF3
:1005840013050583DC56B70510FEFD1593E7270018
:10059400DCD6C167938707A03357F5023375F5029C
:1005A4009307A00F7D8B13164701F8426D8F518F6F
:1005B400F8C23707FCFF2A053355F502FC42F98FD0
:1005C4003A0539815D8DE8C282803707250013061C
:1005D400F7486363A6023767DBFF130707932A977D
:1005E4001306007D3357C7027D1790431377F7072F
:1005F400137606F8518FA5BF130707496318E50062
:100604009843137707F81367670295B737D7250020
:100614001307F777636DA7003767DBFF13070793AB
:100624002A971306007D3357C70279177DBF984375
:10063400137707F8136777021DBF130585C199B7B0
:10064400D8561375F507759BD8D69843137707F8D2
:10065400598D88C382809387C1589C43984B9316C5
:10066400E70063DE0600371701141307F78F98CBF2
:10067400F84F6D9BF8CF09671307879F98C782804F
:10068400138701581843AA8718430D8B45E349C9BA
:100694002D476367A7069307F5FF93F7F70F1387B3
:1006A400C158184393F7F703E207545771761306BA
:1006B400F60FF59A54D7084BB70600C1FD16758D91
:1006C400C98F1CCB938781579C430145DC5B144B3A
:1006D400E58393F7F703F18EA207D58F1CCB7C4FEC
:1006E400B706F9FFFD1693E747007CCF1C4BF58F47
:1006F400B7060200D58F1CCB9386864F14C7828021
:1007040031476302E502130760026365A70093079C
:10071400E5FF61B7130770024945E382E7F8828079
:1007240093075002ADBF9307600295BF05458280D1
:100734009387C1589443184913880158DC5A937518
:1007440007701376070393F7F78FCD8FDCDAC14573
:10075400938781579C4383260800C288631AB60492
:1007640090435849B70500FA1376F6CF184390C35F
:10077400D053FD1521836D8ED0D303D66600CC46AD
:100784008177FD17ED8F42064182DCC60F10000011
:1007940083260800B70702009CC69377F70FAD07BE
:1007A400135716008A076107BA978607FCD285A8F3
:1007B400930500036310B60A904341831366063021
:1007C40090C30966518F2393E702D8531316770019
:1007D40063490604F04B0347950113660610F0CBFA
:1007E400238AE704DC530546E5838D8B639FC702A8
:1007F40083D76600CC4601767D166D8EC207C18311
:10080400D0C60F10000083A60800370602008583B7
:10081400290790C6E1070E073E970607F8D2CCC613
:10082400828058490347070075BF83D76600CC46CA
:1008340001767D166D8EC207C183D0C60F100000ED
:1008440083A608003706020085832D0790C6E107BA
:100854000A07D9B790435849B70500FA1376F6CF7B
:1008640013660610184390C3D053FD1521836D8E73
:10087400B70500024D8ED0D303D66600CC468177EF
:10088400FD17ED8F42064182DCC60F10000083265F
:100894000800B70702009CC69377F70FA9078E07D5
:1008A4001307860111B71387C158938781571376AD
:1008B4000503414814439C4313873500631A060516
:1008C40090430E071376F6CF90C303C681589375F1
:1008D400F601B04A019A4D8EB0CAD453370600FAD5
:1008E4007D16F18ED4D3D44B93F606FC93E6D60052
:1008F400D4CB9306F007238FD700D44F93F606C0CA
:1009040093E6060AD4CF1307C70323AEE1568280C9
:10091400130800036316060D9043418113660630E5
:1009240090C30966518D2393A702D0531315760003
:1009340063480500F04B13660610F0CB238AB70416
:10094400D053854565820D8A631AB60412071307CE
:10095400C70323AEE156D84B137707FC1367B700E0
:10096400D8CB13078007238FE700D85351830D8B0F
:1009740005E3D84F137707C01367C707D8CF83C7DA
:10098400915813F7F701BC4A819BD98FBCCA828066
:10099400D84F137707C01367C709CDB70E071307DE
:1009A400C70323AEE156D84B137707FC1367D70070
:1009B400D8CB1307F007238FE700D85351830D8B4F
:1009C40011EBD84F137707C013670708D8CF83C735
:1009D400815845BFD84F137707C01367070AFDB77F
:1009E400904312071376F6CF1366061090C303C61E
:1009F40091589375F601B04A019A4D8EB0CAD453FA
:100A0400370600FA7D16F18E37060002D18ED4D354
:100A1400D44B93F606FC93E6B600D4CB930680073A
:100A2400238FD700D44F93F606C093E6C609D4CFDC
:100A3400D9BD938701589C43D8431367E701D8C3B2
:100A44003707020023AA07040D07D8C793878157E5
:100A54009843C167FD173CC3930700045CDF8280A1
:100A6400938601589C42B84B3D9BB8CB98430D8B61
:100A740011CF98431367870098C30100010098427F
:100A84003C4B93F7F78F93E707503CCB8280138757
:100A940081811C23411185E7B7170040BC4723A27D
:100AA400F182B7C700409386C71194429387071217
:100AB40023A0D1829C4323AEF18085471CA39307D6
:100AC4008008F3B7078093F787083EC60F1000002D
:100AD400B7170040130770052380E704130780FA53
:100AE4002380E7040F100000B847B70600C1FD16C5
:100AF400758FB706000E558FB8C723800704B24719
:100B0400F3A707800F100000B7C700401387071230
:100B14009306F00314C39387C7119843137707C050
:100B24001367C70998C34101828083C78181B9CF04
:100B3400411193078008F3B7078093F787083EC6EF
:100B44000F100000B7170040130770052380E70457
:100B5400130780FA2380E7040F10000003A74182E3
:100B6400B8C723800704B247F3A707800F1000001B
:100B7400B7C7004083A601821387C71114C303A714
:100B8400C1819387071298C34101828082804111F9
:100B940006C69387018D03C7A182C8C73E8598BF47
:100BA4008CAFA3840182EFF02FFE19C9B24041013A
:100BB4008280010001001423F5FAFD17FDFBFDB747
:100BC400E1679387076A13879182F5B703C581822A
:100BD40082808547A384F1828280411106C68547BD
:100BE40022C4138481821CA05D3593055002130531
:100BF4005002713F13054006EF00F05D930560025B
:100C040013056002693713054006EF00D05C9305B5
:100C1400700213057002A53F093F23000400B2408F
:100C2400224441018280011122CC2A84680026CA10
:100C34004AC806CE3289AE84973000E0E780008E41
:100C440036281E2803270900958F63F3E7023245EF
:100C540023200900973000E0E780408E2628B3C4A3
:100C64000408F240624442492685D24405618280E8
:100C74005C4450401D8E6367E60226970F70977898
:100C84005C4403270900BA9726285CC4832709001B
:100C94003245BE94B3C704083EA8973000E0E7800D
:100CA400E089C1B73387C400A6860F70D778144093
:100CB40083250900BA8754C4AE9436870FF0F470C4
:100CC4005C44918DAE97C9B7797126D2AA84680025
:100CD40022D44AD04ECE06D62E843289973000E0F4
:100CE400E780C083BE28D444B3C9070885E3232022
:100CF40009003245973000E0E7804084B250225426
:100D0400925402594E85F249456182808327090035
:100D140063F4F900232039019C440327090063F498
:100D2400D7023E970F70F7409C4403270900BA97F7
:100D340083D924019CC483270900B389F940B3C72C
:100D44000908BEA87DB7D040B306F640E3FBE6FC35
:100D540022870F70F670032709009C403694158F84
:100D64009CC43386E7000F70F6409C44C9B7411118
:100D740022C406C6937715002A8489CB83A74183AE
:100D840091C79C4381C713854196829793778400CA
:100D940099C783A7418381C79C4791C3829793775F
:100DA400040199C783A7418381C7DC4391C3829718
:100DB400118811C883A7418399C7DC4789C7224496
:100DC400B24041018287B240224441018280EFF067
:100DD400EFEF73002030EFF0AFF17300203023A861
:100DE400A194828023A2A1948280138741941C4BF6
:100DF400120593F7F7FCC98F1CCB8280938741942B
:100E0400C8CB86053E85ACAF6FF00FD823A0A19266
:100E1400828023A6A1928280138701921C4B120523
:100E240093F7F7FCC98F1CCB8280AA8786071385AA
:100E340001925CCD6FF02FC0411106C6413B01C544
:100E4400B240410179B383C7518981EB238C0118E6
:100E5400238B0188B2404101828005476393E702F6
:100E64001387A1891E238507B3C707081EA3194743
:100E74006371F702971000E0E7808068238C011803
:100E8400D1BF09476397E70083C751868DC3239D6C
:100E940001880947938741092382E71083C6618942
:100EA4001947E399E6FA5147A382E71065B7138718
:100EB400A1891E238507B3C707081EA365474DBF35
:100EC400411106C6213301C5B240410119B39387CC
:100ED40061899023A54619476313D600294798A32F
:100EE400B2401565130505E2410181B7011126CA17
:100EF400854406CE22CC4AC8A38A9188239D0188C2
:100F040018351C251389818922075D8F239FE18869
:100F14003C3534252A84A207D58FA946B387D70246
:100F2400B3C7E702239EF1887C317821A207D98FC9
:100F340018312310F9001C2122075D8F3C21283130
:100F4400C207D98F62055D8D713D4820493D483007
:100F5400693D18301C20283022075D8F3C20620533
:100F6400C207D98F5D8D5D354820653548306D35B4
:100F740095679387A75A7C8683570900856601463F
:100F8400B7B5030005457C87EF00F0587000914623
:100F9400B7B503000945EF001058F24062442382BC
:100FA40091844249D244056182800111680006CED1
:100FB400972000E0E7808056856601468145054517
:100FC400EF00705501E5EF00B01301A03245972002
:100FD40000E0E780A056F24005618280797122D456
:100FE40005647D1426D22A94AA8468004AD006D6C1
:100FF4004ECE52CC56CA3180972000E0E780005292
:101004000149631E89048147ADCC0144A5EF9309CE
:101014000010370A0200171900001309290AFD5AA3
:10102400B38684408147B3D6360B3307F400529716
:10103400102333872701850710A3E398F6FE93F75F
:10104400360095EB4A86A2850945EF00D04C1DE990
:1010540013040410E36694FCEF00900A01A0856673
:1010640001469315C9000545EF00F04A19E1050949
:1010740049BF854751BFB307D9002380570185066F
:101084007DBFF9DB3245972000E0E780204B313FFC
:1010940001A063000544797122D406D626D24AD031
:1010A4004ECE10310548238B0188238C01182A84E5
:1010B400636CC80022541565B25092540259F24927
:1010C400130505E2456195B3138571891821239DA4
:1010D40001883C2035C39306F7FF93F6F60F639D12
:1010E400F6041420938526F893F5B50F99C9930552
:1010F40000036388B6009385E6FC93F5F50F636DF2
:10110400B80283A78184DDD7BA2B9E2B998F13074E
:10111400F007E351F7FA9307E007638BF6009307B0
:101124002008E399F6F88947E306F6F85C20D9F33A
:101134008547238AF188BDBF6316F71005079377A7
:10114400F70F1CA11C201307E00F6392E71C03C7D1
:1011540081878547138941096319F7080347090003
:101164009307E0076313F7080357490099679387C8
:1011740057AA631CF7069389018783A70900B5C79B
:10118400972000E0E780C03CAA8483A90900972047
:1011940000E0E78000332A860DC1B7470F0093872C
:1011A400072433853441B335F50281463305F5020E
:1011B400973000E0E78080D82A861387C1861C43D5
:1011C400B2971CC39387818098436373E60090C3EE
:1011D4009387818698436373C70090C3138761869E
:1011E4001E2385071EA323A8018683C6818709477A
:1011F40083470900639CE604130720036395E7060D
:1012040003474900A1476317F704238C01861C3068
:101214000D476374F70E23A68188582093060004B3
:101224006316D7061307E004E376F7E813055400C2
:101234002254B25092540259F2494561171300E006
:101244006700233A850793F7F70FE5BD13072003DB
:10125400639BE700034749009D47E31AF7FA854774
:101264002380F1886DB713073003E392E7FA03C7CD
:1012740041868547E31DF7F889472382F186972045
:1012840000E0E780E02C23A6A18451B79306000375
:101294006318D7003947E37FF7E0130554004DA0E6
:1012A400F5173EC693848184971000E0E78060239D
:1012B4008840700093055400EFF0FF9623A8A1889E
:1012C40015C1B737004003C7174013672700A38031
:1012D400E74083C7B74099E7B7E700E0370700085E
:1012E40023A0E7209C40BA2B9E2B998F1307F0076D
:1012F400635CF7008547238AF188B25022549254E4
:101304000259F24945618280238A0188FDB7130797
:101314001008639EE700B547E3FEC7D813054400F1
:101324002254B25092540259F2494561C1B613078E
:1013340000036391E702B54713054400E3FCC7D6F5
:101344002254B25092540259F2494561171300E0F5
:101354006700435D13072008E391E7FA93875189F7
:1013640094230547639AE600094703D5E18998A3C6
:10137400972000E0E78000CD1C300947E38FE7F6B3
:10138400442013070004E38FE4E813070003E38316
:10139400E4F00547639BE40C7C205830A207D98F06
:1013A400783042075D8F1C24E207D98F03A7818B15
:1013B400E385E7F437871E00938707B5130707FD16
:1013C400E36DF7F213056004E52C0945212D78201F
:1013D4005C30082422075D8F7C306205C207D98FF8
:1013E4005D8D972000E0E780A0C91C3437370040AA
:1013F400BDC38347374093E74700A301F7403C242C
:1014040037370040B1CF8347374093F7F70CA30138
:10141400F7403C2483463740FD17920793F70703B0
:10142400D58FA301F7408347374093E78700A30193
:10143400F740373700408347374093F7C70FA3017E
:10144400F740343483473740ED16D58F93F7F70FC1
:10145400A301F7405DB58347374093F7B70F71BFDA
:101464008347374093F7770FD9B7E39804E8F51724
:101474003EC623A6818813898184971000E0E78003
:10148400400603250900700093055400EFF0AFF9FE
:1014940023A8A18815C1B737004003C717401367B5
:1014A4002700A380E74083C7B74099E7B7E700E088
:1014B4003707000823A0E72083270900BA2B9E2BB7
:1014C400998F1307F0076353F7009944238A91888F
:1014D4002DB51565238B0188238C0118130505E2AE
:1014E400DDB6B737004003D7C74093070032330750
:1014F400F702B72700409386C74098C20947238064
:10150400E74011472380E7408280B727004003C7A4
:101514006740058B15C705462383C74083A6018B07
:101524001387C74014C389462380D74011472380BB
:10153400E74083C5C18B9387C18B6395C50098A38E
:101544007300203090236314D6000D47CDBF94233D
:10155400E398E6FE1547E5B7B737004003C74740B1
:1015640099463D8B6307D706011122CE26CCB1469E
:101574006309D7069146631AD70A83C7A740B735CC
:10158400004093F7F70F3E863EC23307F64083C60A
:10159400854041070A97FD17230CD7FE93F7F70FF1
:1015A400EDF750002C0003A5018CEFF0CFE77D4749
:1015B4009387C18B6373A7020D4798A31387C18ACE
:1015C4001C439246B6971CC37244E24405617300FF
:1015D400203083C7574073002030094798A3113740
:1015E400F1BF83C7A740B735004093F7F70F3E8696
:1015F4003EC23307F64083C6854041070A97FD176C
:10160400230CD7FE93F7F70FEDF750002C0003A53A
:10161400018CEFF04FE11387C18A1C439246B697C1
:101624001CC38D47238EF18A45B713840189184062
:1016340049C303C7B740938481848840A147998FE5
:101644003EC218455C416314F700184118C558455B
:101654006394E7001C415CC550002C00EFF0CFE61A
:1016640008C08147B7360040124763E8E7021C40D0
:101674003737004095CB8347174093E72700A300F3
:10168400F7409C40BA2B9E2B998F1307F007E35D1C
:10169400F7F29947238AF18805BF38003E9718234B
:1016A40085072384E640C9B78347174093F7D70FCC
:1016B400F9B703C717401377D70FA380E74029B7BB
:1016C4009307000C01116314F50493078008F3B722
:1016D400078093F787083EC00F100000B71700403B
:1016E400130770052380E704130780FA2380E704B7
:1016F4000F10000098271367070C98A7238007048E
:101704008247F3A707800F10000005618280B71796
:101714000040B827118B69EB83C6E70413078008E0
:1017240093F6F60F733607801376860832C20F10CD
:1017340000001308700523800705930580FA2380B1
:10174400B7040F10000003C6E704136636002387AE
:10175400C704B02713664600B0A7238007041246C7
:10176400732606800F10000090271376F60F733748
:101774000780137787083AC40F10000023800705F9
:101784002380B7040F10000098271367070C98A74D
:1017940023800704A247F3A707800F100000A54782
:1017A4000100FD1793F7F70FE5FF93078008F3B7E0
:1017B400078093F787083EC60F100000B717004054
:1017C400130770052380E704130780FA2380E704D6
:1017D4000F10000090A72387D70423800704B24783
:1017E400F3A707800F1000009377050C130700047C
:1017F4006399E70893078008F3B7078093F787088E
:101804003EC80F100000B71700401307700523806F
:10181400E704130780FA2380E7040F100000B827B9
:10182400854613670701B8A737270040A303D7806D
:101834008346578093E60601A302D78023800704DA
:10184400C247F3A707800F10000093078008F3B77F
:10185400078093F787083ECE0F100000B7170040AB
:10186400130770052380E704130780FA2380E70435
:101874000F1000001375F50F88A723800704F247A3
:1018840049B59377F5019DCF93078008F3B7078097
:1018940093F787083ECA0F100000B71700401307DC
:1018A40070052380E704130780FA2380E7040F10F0
:1018B4000000372700408946A303D780238007040C
:1018C400D24741B793078008F3B7078093F7870897
:1018D4003ECC0F100000B71700401307700523809B
:1018E400E704130780FA2380E7040F10000037276A
:1018F40000409D46A303D78023800704E24791B7A5
:101904000111814601468145114506CE29219307DF
:101914008008F3B7078093F787083EC60F100000CE
:10192400B7170040130770052380E704130780FAF4
:101934002380E7040F10000003C767041367170030
:101944002383E70423800704B247F3A707800F101B
:101954000000F240056182804111814601468145C3
:101964001145552E13078008F337078093F787082E
:101974003EC40F100000B717004013067005238003
:10198400C704930680FA2380D7040F100000FD5586
:10199400CEB723800704A245F3A505800F100000ED
:1019A40073370780137787083AC60F100000238027
:1019B400C7042380D7040F10000003C7670413670C
:1019C40017002383E70423800704B247F3A70780A3
:1019D4000F10000001A0E5473305F50201007D1555
:1019E40075FD8280411122C406C62A841305803EF7
:1019F4007D14D5373344040875F8B24022444101BC
:101A04008280230304801547A2872303E480010016
:101A140001002302A48003C7678062076187E34C47
:101A240007FE2382A780228783476780E207E18736
:101A3400E3CC07FE82802303048015472303E4805C
:101A4400010001002302A480828083076480E3CE26
:101A540007FE23030480828083076480E3CE07FEAD
:101A640003454480828083076480E3CE07FE23021B
:101A7400A4808280411126C44AC24EC006C6137790
:101A8400F50BAD47AA892E8995446306F7001945DD
:101A94005D37653F8D444E85793FFD59FD1463984C
:101AA4003401B240A2441249824941018280135553
:101AB40009011375F50F453F2209CDB7011126CC55
:101AC40006CEB704080051371545B5377137693765
:101AD4002AC6A53F32459377150089EB1365150097
:101AE4001375F50FF240E24405618280FD14E9FCB0
:101AF4000145CDBF411106C6B71700401307700555
:101B04002380E704130780FA2380E70403C747040C
:101B14001305F00F1367070E2382E704914723038D
:101B2400F480C535B24041010DB7011126CC4ACA33
:101B34004EC852C606CE2A89AE89B284554A5D3F44
:101B440091E82137F24026855249E244C249324A9B
:101B540005618280CA850945313F910903A7C9FF00
:101B640091472320E48003076480E34E07FE2303A8
:101B74004481FD17EDFBFD14110981C49377F90F1E
:101B8400E9FF2D3F55FDFD5475BF011126CC4ACA0E
:101B94004EC852C656C45AC206CE2A89328A8D49C4
:101BA400913FC164C16A056B9387F4FFB3F72701C2
:101BB40099E363719A02FD199180E39709FE7135E7
:101BC4000145F240E2445249C249324AA24A124B08
:101BD400056182801305800D63885401130500029A
:101BE4006384640113051008CA856935C13D09C5BC
:101BF4002699330A9A4075BF7D55E1B7011106CE87
:101C040026CC4ACAB2844EC82AC62E89E535324546
:101C1400FD14FD59AA852D45B13D639A340135352E
:101C2400F24026855249E244C249056182802D353D
:101C340093F7340091EB832604800327090093076C
:101C44004900E39EE6FC3E89FD14C1BF011106CEA6
:101C54002AC64D353245C533F2400561FDB3011145
:101C640006CE26CC4ACA4EC852C6AA8956C42E8964
:101C74005135B7050400B3E5B9002D45E53B814472
:101C84008D4A214AD13B6396540183270480232043
:101C9400F9008504E39844FF8327048013972901FE
:101CA400635C07002312F900F240E2445249C2493E
:101CB400324AA24A056151BB2322F900F5B741110A
:101CC40006C626C44AC24EC0AE892D3581451305C9
:101CD400B0044D33BD447D59413393F77400CE971E
:101CE40003C70700FD14398D2380A700E39624FF62
:101CF400B240A24412498249410181BB411106C646
:101D0400D53B13056006053B89331305900925333C
:101D1400B24041011DBB01112A8706CE2E8526CC77
:101D2400B2854ACA368622C637240040B7E700E0A7
:101D3400FD5603A90700C44323A0D71823A2D7182C
:101D44009307F7FF93F7F70F894663E7F608B7178A
:101D5400004083C75704B706040093F7070299E3CA
:101D6400B7C60300F9576372D5043308C50063EEA0
:101D7400060389476311F7040982453BAA8737178D
:101D84000040930670052300D704930680FA2300CD
:101D9400D70483464704C18A2302D70437E700E007
:101DA40023202711232297103244F240E24452495F
:101DB4003E85056182808547631CF7008567FD17B2
:101DC4003E96E98F3E96FD777D8E7D8D7D3B7DB77A
:101DD40035359307150065B7B5476317F700130545
:101DE400900BAD35814761BFB1476315F70013050B
:101DF400B00AC5BF99476314F7009535E5B79D4709
:101E04006318F70023A0050023A205004D3DD9BFA8
:101E140091476314F700DD35F1B781472DD3F157AE
:041E2400B9BF000042
:101E28009711002093810181171100201301011DD2
:101E38001305400097E5FF1F9385451C17060020F2
:101E4800130606FE63FAC5008322050023A0550089
:101E580011059105E3EAC5FE172500001305456243
:101E6800970500209385C5FB1386818163FAC50019
:101E78008322050023A0550011059105E3EAC5FE5C
:101E880013858181938541596377B5002320050027
:101E98001105E36DB5FE93025002739002BC8D42AA
:101EA800739042808542739012BC930280087390AD
:101EB800023097E2FF1F9382621493E2320073901C
:101EC8005230970200009382A24D7390123473002F
:101ED80020302A8309CA83830500230073007D16F6
:101EE800050385056DFA82800111B707060806CE3D
:101EF8001387018F938727101CC7F577938767216E
:101F08005EA7F1577CA76346050A1305E503930707
:101F1800D0073345F502C177B70671023365F50A74
:101F2800C167FD173345F50A9387152763F6D70868
:101F38009306204EB3D7D7023E05C6073D81C98F09
:101F480093D6870014AB93D607017CB714BBE18303
:101F58009386B1823CAB9C221546850793F7F70F11
:101F68009CA23CBBB7573537938737843EC4930749
:101F780000037C868567938767905EAB9386018FA5
:101F880081472C00BE958C2185078506CCBAE39A3B
:101F9800C7FE89679387279019469385C182138561
:101FA800218F1EA33D37F240ED472385F18205615D
:101FB8008280130525FCA1BFA167FD17B5BF41119C
:101FC80006C681479385C1821947B306F50090225A
:101FD800B386B700850790A2E399E7FE01468145DD
:101FE8000145193737C7898E9387018D130767ED28
:101FF80098C3238A018C375755001307575598C73C
:102008003707500A110798CB1387018FD8CBA384C1
:10201800018E1167130707BABAAFB24037078000BD
:102028001307D732D8CF23840182238C0180410142
:1020380082803387C5000CC158C112A92319050035
:102048000CC54CC582809707002083C7A7DE91E3A3
:10205800828001000100010001000100010001006F
:102068000100FD1793F7F70FDDB7854511456F1090
:10207800603C854521456F10E03BB717004011478C
:1020880023A6E70A8D4511456F10C03A411106C6CF
:10209800ED37553FF93F453FC93FB240410165B76C
:1020A800B7170040214723A6E70A8D4521456F1041
:1020B8006038411106C6553F6D3F71377D3F613726
:1020C800C537B240410141B7411122C426C206C6F4
:1020D8002A84A1449317446063D207047937FD1416
:1020E800060493F4F40F85371374F40F5937A13F9E
:1020F800453F913FE5F0953FB937A53FA937B71759
:10210800004003A4470A693F3D3FB24013454400DD
:10211800224492441355254841018280B93FC1B7F2
:10212800411106C6EF10203937376E019306F75F65
:102138003695854763FEA600B716DF739386F65F6C
:102148009307000563E6A60013070760B357E50287
:102158000D47B240B387E70217070020230CF7CCDE
:1021680041018280011122CC26CA4AC84EC606CE39
:102178002A89A144DD3D0144B7190040DD3DE13520
:102188009387490A9C4306041374F40F918B99C3EF
:1021980013641400FD1493F4F40F19376D35F9FC2A
:1021A80063010902D93D4535E935713DD53D753D98
:1021B800593DF24022856244D2444249B249056100
:1021C80082806535CDB7411122C426C206C64AC0F1
:1021D8002A84AE84F93D13050008FD3509E97D35EB
:1021E8000145B2402244924402494101828022853D
:1021F800E13D75D57D3D13051008F9356DD10545CF
:1022080095372A840145B93F2A8922044135336527
:1022180024018AA00545F1B7411106C622C409C5A3
:102228009707002023AAA7C0930700081314B02813
:102238006384F50263EFB702914713040020638DAE
:10224800F50093070004130400606387F500FD158B
:10225800B335B0001394A50097070020239D87BCD1
:10226800893D130500088D351DED2244B24041011A
:1022780031BD930700206380F50293070040638017
:10228800F5029307001013040040E397F5FC05647A
:10229800130404A0D1B70564130404C075BF056412
:1022A800130404E055BF0145053561D11355840079
:1022B80013651500113D55D913057002313575B7F1
:1022C800011106CE2AC62EC4A13D6533793BA53B34
:1022D800A2453245F240056181B7011122CC6C005C
:1022E8002A84054506CE26CA4AC8231601002317A4
:1022F8000100D13D01E90145F2406244D24442491E
:10230800056182809305E1000945753D6DD52487F7
:102318009307204E0315C10066A8B384F4029307FF
:10232800803E4AA817060020032606B144C0B3D44D
:10233800F40244C431CAB72726009387075A1357B3
:10234800F541B335F50281463307F7023305F50247
:10235800BA95EF1050001306803E81462A89EF1087
:10236800807FB307A04008C43365F50AB3259502FA
:10237800232024011306803E81463385A402EF10F2
:10238800303B08C805458DBF01490145D9BF4111FA
:1023980006C6EF008069EF005071E5BF41110545A1
:1023A80006C622C4EF1000041305600497F0FF1F4F
:1023B800E780C030B7F700E07D5798CB154798C342
:1023C80013840108EF00507B99296824EF00305EE0
:1023D80058305C20143422075D8F7C2068300C2430
:1023E800C207A206D98F6205D58D5D8DD13D3920F2
:1023F800EF00503B693F23AAA1828280011197F721
:10240800FF1F938787963EC42800F54706CE3EC631
:10241800EF108020116793874194130707BABAAF6A
:1024280037062557B7565500370780001307D732A8
:1024380013065642454593865655C14523820700E3
:1024480090C3C8C794C78CCBD8CF9387019298D331
:1024580013874196D8CB7D5798BF2382070090C336
:10246800C8C794C78CCB23AA0182F240B7E700E023
:102478003707100023A0E7103707200023A0E71034
:10248800056182804111540036860147A947A54855
:1024980033F8F50205071377F70F1308080323002D
:1024A80006012E88B3D5F50263E308039307F7FF07
:1024B80093F7F70FB6972A868C230506A30FB6FE67
:1024C800BE85FD17E39AD5FE3A954101828005063F
:1024D800E310F7FCE1BF83A7818481CFD843D447B9
:1024E8006394E6009443D4C794476314D700984391
:1024F80098C78280A38001884111A382018622C4E3
:102508002382018637042557130554422388018402
:1025180006C623820184A38A018897F0FF1FE780FB
:10252800208C454597F0FF1FE780208B1305544208
:1025380097F0FF1FE780408D454597F0FF1FE78024
:10254800008DB2402244238B018841018280797139
:1025580022D426D24AD006D62A84AE8403D9A1082A
:10256800EF00707583C6518909476389E600014504
:10257800B250225492540259456182801307803E1A
:10258800B357E502B3872703FDD393868188984222
:102598003307E440E36DF7FC280080C23D3B61D976
:1025A800F247138541099305C0035CC1238E0108D6
:1025B8009547238BF188930710731EA18547230243
:1025C800F51083C771893CA124B197F0FF1FE780FC
:1025D800A082054571BF5971A2D486D6A6D2CAD0A9
:1025E800CECED2CC04218D472A84638EF41A63E0C0
:1025F80097028547638FF40289476382F40EB650C9
:10260800265496540659F649664A65618280914770
:10261800E397F4FEA382018613874185238201860E
:1026280006A33C313421A207D58F3EA323AC0184F5
:1026380085A25C31582113890186A207D98F782198
:1026480042075D8F7C31E207D98F2320F9001835C6
:1026580014252207558F3425C206D98E38356207CE
:10266800558F23AEE1849386F7FF216763F5E6046F
:1026780005677D17BA97080893D4C7008149EF000A
:102688003069370A02009395C90085660146D295DC
:10269800054597F0FF1FE780C06721E18509E394AE
:1026A80099FE81444245EF00B06891E48547A382D2
:1026B800F1862382018613874185854614A304B3D6
:1026C8003C303020A207D18F3EA3832709005CC38A
:1026D8002388D184238AD1881DB78944E1B783C769
:1026E80051869549B5CF04311307F003854993877F
:1026F800F4FF93F7F70F6365F70658315C21034938
:10270800750022075D8F7C216209C207D98F336962
:10271800F9008D8BB1E783A7018663E32705B387AB
:10272800274163EF97029305C50026860808EFF056
:102738004FFA7D5793F73400B5E36800EF00505D1A
:10274800B7050200A6861008CA95094597F0FF1F2D
:10275800E780205C8D4911E181493245EF00505DE9
:102768009386418589479CA2A38036013C30382056
:10277800A207D98FBEA25C305820A207D98F782033
:1027880042075D8F7C30E207D98F1830BA97DCC2D8
:1027980085472388F184238AF18895B51C08A69774
:1027A80098A3850441BF83C7518695468DCB37864C
:1027B800B8ED83A501868146FD573705020013064B
:1027C80006326399D50293C7F7FF03A7C18563143F
:1027D800F70405472382E186814623ACF1841387F9
:1027E80041858D471CA314B33C303420A207D58FF4
:1027F8003EA379BF3307D5001823B98F214713F8B3
:102808001700858363030800B18F7D171377F70FCF
:102818007DF785067DB7A382018691467DBFB7A760
:102828000300944337A75A5A1307575A9387010846
:10283800639FE60441113E854546B7A5030006C6D9
:10284800EFF02FE93A258566938666351307E7FC8E
:10285800AA873347070863F5E600130740063AA539
:102868009A27C1466306D700930600406315D70030
:10287800130700049AA7982BCD467D171377F70FF7
:1028880063F4E600114798ABB2404101828098C3D7
:102898001567130707E2D8C337076400130707044F
:1028A80098C7370700FF1307873ED8C7114798AB6B
:1028B8009A27C1466306D700930600406315D700E0
:1028C800130700049AA7982BCD467D171377F70FA7
:1028D80063F5E600114798AB828082800111680099
:1028E80006CEEF00F04285660146B7A50300054510
:1028F80097F0FF1FE780E041C54613860108B7A59A
:102908000300094597F0FF1FE780A0403245EF001C
:102918003042F24005618280630805101C211D4782
:10292800FD1793F7F70F6361F710172700001307D8
:10293800279DB3C7E7209C43411106C6BA978287F3
:10294800B24041016F00700FB24041016F00701238
:1029580008313335A0002387A108EF005005B240A5
:102968004101ADBF58315C2122075D8F7C21C20730
:10297800D98F783162075D8F9387010811C3D8C357
:10298800383134212207558F11C39AA7183109C746
:10299800A9463307D702BAA7183514252207558F39
:1029A80011C3DAA734354D461387F6FF1377F70FAF
:1029B8006363E60094AB8E27C843EFF0FF8545B705
:1029C80085472381F188B240410182808547A380F1
:1029D800F188D5BF03C751898947E316F7FE83C736
:1029E8008187F5F33C313821A207D98F0567130792
:1029F8008738B3D7E70A13074006B3F7E70A2396E1
:102A0800F180EF00303423AAA18623A8018623A6EB
:102A18000186FD5723A4F18023A401862393018610
:102A28008547238CF18645B78280397122DC06DE22
:102A380026DA4AD84ED652D456D25AD003C701887D
:102A48008547138401886318F700EF00B02F23AE81
:102A5800A18689471CA0182089476315F702EF0053
:102A6800702E83A7C1873304F540EF00D024A9470F
:102A78003355F5026368A4002380018897E0FF1F9F
:102A8800E780605203C7418689476317F702EF0062
:102A9800702B83A7C1843304F540EF00D021D147C0
:102AA8003355F502636AA40003A5018623820186D3
:102AB80097E0FF1FE7804052138441098344441084
:102AC80085476391F40CEF00F027138701841C43BA
:102AD80081EF08C3F2506254D2544259B259225A73
:102AE800925A025B216182803304F540EF00B01CEA
:102AF8000581E361A4FE23A00184238C0118238BA4
:102B0800018803C78187938781876310970403A788
:102B1800018705CF23A8018683C651890947639693
:102B2800E6009C2395CB239D01886254F250D25431
:102B38004259B259225A925A025B1565130505E2A9
:102B4800216117E3FF1F6700032E94230947E395CC
:102B5800E6FC238C0186C9B71387A1891E23850744
:102B6800B3C707081EA303D7C189E370F7FC6254F3
:102B7800F250D2544259B259225A925A025B2161F8
:102B88006FF05F9723A001846397043E83C7518643
:102B9800938A5186A5E783C74184ADE3EF00901A75
:102BA8002A89EF0050119307803E83C601093355E7
:102BB800F5029387F6FF93F7F70F4D476373F70016
:102BC80091469307803E1386418818423307E940AF
:102BD800B3D7D702B387A7026362F702280023207E
:102BE8002601EFF08FEF11C56246B2452245EFF09E
:102BF800AFAF97E0FF1FE78000FEE9BD138A81842D
:102C080083270A00BA2B9E2B998F1307A00FB3C7EF
:102C180007086374F7009304B00F9389518903C7B9
:102C2800018583C7090035C70947639AE7042388E4
:102C38000184938741859843DC4358C01CC4954759
:102C4800238BF1888567938737A31EA085472302C6
:102C5800F41083C771893CA0A38B01086254F25019
:102C6800D2544259B259225A925A025B9305C00370
:102C780013854109216117E3FF1F6700E3171387D5
:102C8800118883C60A0018239387818705E39C234C
:102C980005A003C70A0025C309476397E700238BEC
:102CA800F1889307202055B783C7118883C7818788
:102CB80083C7218883CA0900638C071C8947638BF3
:102CC800FA18EF003008A685EFF07F88E31405E0D6
:102CD80083C70900938661896381072689479CA277
:102CE800930720201EA085472302F41083C771890B
:102CF80024B03CA0A5B703C7118821C30947E397AF
:102D0800E7FA971500009385A5611385C109A3808B
:102D18000188EF10805B9547238BF188896793873B
:102D280027631EA085472302F41083C771893CA03E
:102D3800A38B01089D475CC015B783C681870547EB
:102D4800E398E6F60947E395E7F6EF00A07F2A89BE
:102D5800EF0060769307703E054763F6A7001307F8
:102D6800803E3357E50283A74187B307F94093862E
:102D7800018783AA0600B3D7E70203D7C18063E6B9
:102D8800E708E3970AF283D46186814589C483A55D
:102D9800C186B3D595028947238CF186A1475CC0CB
:102DA8007D5783A781806383E700BE8A9307100459
:102DB8001385D10983A981861CA4EFF0AFEC130910
:102DC80000029307D0041CB123002501D68509050C
:102DD800EFF04FEB930780051CB123002501CE854A
:102DE8000905EFF02FEA930700051CB12300250120
:102DF800A6850905EFF00FE9954723000500238B09
:102E0800F18889679387276389B5E3930AEA13876B
:102E18004109930710031306100B5CA3850793F76A
:102E2800F70F0507E39BC7FE9547238BF188E177EA
:102E38009387E7271EA085472302F41083C771896B
:102E48003CA0A38B01089967938757AA5EA023A08B
:102E5800260129B57D46971500009385A54D138554
:102E6800C10923810188EF104047A38D010A9547C6
:102E7800238BF1888967938727631EA085472302E0
:102E8800F41083C771893CA0A38B0108994765B5E5
:102E98008947E398FAE29307B00F938541191385A0
:102EA80081092320F41025241DE19547238BF188FF
:102EB8009307E0071CA08327041089071CB08547E7
:102EC8002302F41083C771893CA024B041BB930747
:102ED8000008E308F5DEEF00E066A6852A89EFF032
:102EE8000FE7E31905BE83C70900938941896398F1
:102EF8005703138B8183832A0B00752B9307800C50
:102F08003355F502B30A594163EBAA0083270A0037
:102F180023202B01BE2B81E785472380F90083C737
:102F28000900E38907BAFD172380F9008947238B35
:102F3800F188930720201EA059B71387C1831E2349
:102F4800130660098507B3C707081EA3138781897D
:102F58006376F6001E2399C3239C018885479CA2AB
:102F6800930710601EA0D1475EA01E2381447EA057
:102F7800A38B01888DBB8947E39EF4B48347541023
:102F880099CF2547238BE1881307F00F6385E70066
:102F9800FD17A302F41085472302F410C1B1238C56
:102FA80001180DBE41111306006097F5FF1F9385A8
:102FB80065101385C1A6A38B018823A80188A38A5D
:102FC8000188238C011806C6EFF0AF86B7B6030058
:102FD80023A4A184922295679387A75A0147631374
:102FE800F600BA2217F5FF1F130585E3239CE18835
:102FF800EFF06FC0B2401385018141016FE03FFCE3
:10300800411106C622C426C22A842D2BAA84652112
:103018001307703E85476376A7009307803EB35732
:10302800F502B2403304F40233059400224423A08D
:10303800A18A924441018280411122C406C62A8491
:103048009D2923AAA18A9307007D3355F5023305EC
:10305800850223A8A18AB72700401387C74008C361
:1030680009472380E74011472380E740B2402244C4
:103078004101828041114AC01389818B832709004D
:1030880006C622C426C2638EA7022A849384418B73
:103098001D2188C0054597F0FF1FE78060949C407C
:1030A800294723208900B307F7028D83B3D7870206
:1030B8009507B3D7E70237370040B3C70708231689
:1030C800F740B240224492440249410182804111B2
:1030D80022C426C206C603C7C18B8D472E8493849B
:1030E800C18B6313F7042E86AA8503A5018C97E08C
:1030F800FF1FE78020BD09EDB7E700E037070008AC
:1031080023A0E7180F100000854694A023A0E7101D
:103118000840133515003305A0401375F50FB2406C
:1031280022449244410182809820954723A00500BB
:103138001305F00FE315F7FEB7E700E037070008BF
:1031480023A0E7180F100000854694A023A0E710DD
:1031580013050008E9B7411185471306003C93851C
:10316800011B1385C11906C622C4238EF18AEFE01C
:103178005FEC23A0A18C37E400E0B7070008232008
:10318800F4105145553DB727004011472380E740CB
:1031980003C727400145136717002381E740B70796
:1031A8000001B2402320F4102244410182804111E1
:1031B80006C69387818A3335A00088A337E700E0E5
:1031C800B70600082320D7180F1000009823B71758
:1031D80000409387870B15E7054798C38D4505453C
:1031E800912C85450945B9240D468D45054509218C
:1031F800B240B7E700E03707000823A0E710410115
:103208008280094798C38D4509452D248545054584
:10321800152409468945D9BF411106C6B71700408C
:103228001307000823ACE70A814513050008192491
:10323800B24023A2018A41018280411122C4138431
:10324800418A1C4006C695E3B717004013070008DB
:1032580023ACE70A130500088D45E92A85471CC0F9
:103268002244B2401545410161BBB24022444101AC
:103278008280411122C41384418A1C4006C695E30A
:10328800B71700401307000823ACE70A1305000826
:103298008D454D2291471CC02244B240154541013D
:1032A80085B3B240224441018280411122C4138473
:1032B800418A1C4006C6BDC7712483A7018A1D8D9B
:1032C800634205061C401547FD176368F708171782
:1032D80000001307E707B3C7E7209C43BA97828724
:1032E800B71700401307000823A6E70A13050008CC
:1032F8008D45892289471CC051452244B24041016D
:1033080001B3B71700401307000823ACE70A8D473D
:103318001CC01305800CD5B7814513050008192A70
:1033280023A2018AB240224441018280B71700409B
:103338001307000823A6E70A130500088D45DD28B2
:1033480095471CC01305C05D4DBFB7170040130754
:10335800000823ACE70A994765BF23A2018A2244E3
:10336800B240B71700401307000823ACE70A8145AD
:103378001305000841017DA8411106C622C426C2D2
:103388001D2A23AAA18A371400401E2C71777D17A5
:10339800F98F1EAC51359307C40A894484C38D45FF
:1033A800094549280565130585BB97E0FF1FE78098
:1033B80020631304840B854504C00945A5280145ED
:1033C800FD336D2A7165130505206D310945C52248
:1033D80095450545D52A2244B2409244238E018A58
:1033E800410195BB371700408347E7041205411197
:1033F800BD8BC98F93F7F70F93068008F3B6068045
:1034080093F6860836C60F10000093067005230051
:10341800D704930680FA2300D7040F10000023076F
:10342800F70423000704B247F3A707800F10000032
:1034380041018280914763ECB70497170000938796
:10344800A7F2B3C5F52098413E97B7170040938778
:10345800470B0287944337170040B3F6A64094C33E
:103468009306070B9C42B3F7A74019A89443371754
:103478000040B3F6A64094C39306070B9C42C98F3D
:103488009CC29307070A98433377A74098C3828062
:10349800944337170040C98ED9B798433377A7406C
:1034A80098C3B71700409387070A9843498FF9BF15
:1034B8009843498FF5B7B717004098279306000C33
:1034C8001377070C6315D70003A5418C82809827D2
:1034D800930600041377070C6310D7029427130789
:1034E8000002FD8A99C298277D8B3745C3231305AF
:1034F80005603345E5028280942713070002FD8AA0
:1035080099C298277D8B3755E80113050580D5B7F3
:1035180037E700E01C435443A183E206D58F1CC162
:10352800FD572320F7182322F7180F100000828078
:1035380013178500B7E700E023A0E710618123A2F5
:10354800A7108280B7F700E088478280411122C423
:1035580006C62A848D372947B307E502B2408D8312
:10356800B3D7870222449507B3D7E702373700401D
:10357800B3C707082316F7404101828071654111DE
:103588001305052006C6D937B7370040130710F8CA
:103598002381E7400D47A381E74013070004A38078
:1035A800E74005472387E740B2404101828037372B
:1035B8000040834727401A0593F7F703C98F93F70D
:1035C800F70F2301F7408280B737004003C7174041
:1035D80019C94D8FA380E74003C7074013678700C9
:1035E8002380E7408280B375B740A380B7408280CC
:1035F800371700403E2FB3C7070893F707FCB3C738
:1036080007083EAF09C93E2F8E055D8ED18DB3C523
:1036180005082EAF828082801841411106C6938723
:10362800015798C3584117D5FF1F130525A6D8C3BE
:103638006D20B24001454101828001114EC6938937
:10364800815703A7090006CE22CC26CA4AC852C40D
:1036580056C21443B707FDFF1384F7FFB3F786007C
:103668001CC31C43370A02001389C158E18FB3E712
:1036780047011CC303270900B7063300938A015882
:103688001C47B7040F00D58F1CC783A70A001387F0
:10369800845D93840408B8CBAD2C7521812AE5227A
:1036A80083A60A0003A70900416623A446011C4318
:1036B800E18FD18F1CC3032609003707CEFF7D1782
:1036C8001C46F2406244F98F1CC6A4CA4249D2443F
:1036D800B249224A924A05618280B7C700401387DF
:1036E800072001119387071023A0E15837D700401E
:1036F80006CE2AC623A6E15823ACF1568D2897D0CA
:10370800FF1FE780C032153F3245F24023A4A18C49
:1037180001450561828083C7015903C7C18C1D8F8C
:1037280093070002898FB387E702A14601459305F5
:1037380070021205FD1633C6B702BA97518DF5FA15
:10374800828003C7115983C70159B306F7401D0585
:10375800998FB387A7022147014593057002120587
:103768007D1733C6B702B697518D75FB8280938754
:10377800C1589C4313070048B70600F998D7D85F8B
:10378800FD16B7050040758FB7060002558FD8DFC4
:10379800D85F3706FAFF7D160E070D834D8FD8DFE9
:1037A800945BF18E94DB985BB7060090FD16758FDD
:1037B8004D8F98DBB847B706F9FFFD16758FB8C768
:1037C800B84BB70607001377F78F13670730B8CBE6
:1037D800F84F558FF8CFF84FB7060007558FF8CF39
:1037E800930740060100FD17F5FF82801387C15833
:1037F8001C4341767D16B44BF18EB4CB9447370603
:103808002000D18E94C7D44793E60601D4C7D44785
:10381800BD9AD4C7010001000100010014430566E8
:10382800DC4693E70701DCC6DC42D18FDCC2938714
:1038380001589043930740067CD27C5291C783A7D6
:10384800C609A183858BF5DB010001000100010099
:10385800184341668327C709FD8BA384F158344B6D
:10386800D18E34CB344B3706E0FF7D16819ADD8E3E
:1038780034CB1447F18E14C70D476375F700F5175D
:103888002384F15882809387C1589C4341777D17E0
:10389800B44F4166F98EB4CF9447D18E94C7D447BC
:1038A80093F6F6EFD4C7D443758FD8C3D44793E6BD
:1038B8000610D4C7D843518FD8C382809387C15884
:1038C8009C431375F51F8176D8439386F60F799B31
:1038D800D8C313178500885F758D598D88DFD84345
:1038E80013671700D8C313870158144309671307D0
:1038F80007F4F8D203A70709131657006358060000
:1039080003A707091316670063440600F8527DF3FE
:103918008280411122C41384C1581C4006C6FD761A
:10392800D843FD161377F7EFD8C39857758F98D7F4
:10393800D857B70602003D9BD8D79847558F98C7E8
:10394800D84313670701D8C3856703D7615893879E
:1039580047236307F71E1305F00B8D37184013052F
:10396800700E8327070993F7F7032386F18C8327C3
:103978004709A98393F7F707A386F18C8137184085
:103988001305300D8327070993F7F703A388F15828
:1039980083274709A98393F7F7072385F158393F08
:1039A80018408327070993F7F7032388F1588327DB
:1039B8004709A98393F7F7072382F1580040014587
:1039C800993B2320A40A2145B9332322A40A41455F
:1039D80099332324A40A61453D3B2326A40A1305F1
:1039E8000002153B2328A40A0545A13B232AA40A63
:1039F8002545813B232CA40A4545A133232EA40A3F
:103A0800654581332320A40C130510021D3B232296
:103A1800A40C83C5115903C50159B305B5409307D3
:103A2800A002B387F502130790029306800203C829
:103A3800A158A148130300023387E502B3C7D70290
:103A48003347D7029207A946D98F2324F40C83C79A
:103A5800415833860741B306D6023308F840032E8F
:103A6800840C33C7B602C296136787003317170151
:103A78003367C7012324E40C9108E39268FE2326E8
:103A8800040C0A060147C148B346B6020323C40C16
:103A9800429693E68600B396E600B3E666002326D0
:103AA800D40C1107E31217FF83C6D18C83C5C18CD0
:103AB8009D8E898D0148930800023346B80203237E
:103AC800C40C36983316E600336666002326C40C09
:103AD8001107E31417FF139826000146F1483347EE
:103AE800B8020323040D36983317C70033676700FD
:103AF8002328E40C1106E31416FF58408566137555
:103B0800F5033D9B58C0584093F7F707E207799BA8
:103B180058C01854558F18D45854B7060081FD164C
:103B28001367070158D4185C137707FC498F18DC12
:103B3800185C758FD98F1CDCB24022444101828009
:103B480023930158A5BD9387C15898435C4393E7D5
:103B580007105CC38280014863C8050E63DB06005A
:103B6800B337C000B306D0401348F8FF9D8E330624
:103B7800C040B2882A872E83F9E263F2C512C16772
:103B8800636CF61AB7070001B337F600B307F040C5
:103B9800E19BE107335EF600970600009386067EF8
:103BA800F2969422130E0002B697B306FE40630CF9
:103BB800FE003393D500B357F500B318D60033E3AE
:103BC80067003317D50013D608013355C302B3C6AF
:103BD8000808935707013373C302B385A60242034B
:103BE800B3E7670063FAB700C6971303F5FF63E40A
:103BF800170163E8B7321A858D8FB3D5C7023347EB
:103C08000708B3F7C702B386B602C2075D8F637BA6
:103C1800D70046979387F5FF63651701F915636326
:103C2800D700BE8542054D8D814563090800B3372D
:103C3800A000B305B0409D8D3305A040828063FE8F
:103C4800D50081450145D5B7B337A000B305B040CD
:103C58009D8D3305A0407D5811B7C16763E4F61800
:103C6800B7070001B3B7F600B307F040E19BE107DF
:103C7800B3D8F600170700001307477046971823B4
:103C8800130300023E97B308E3406311E31863ECA3
:103C9800B6263335C50013451500814579B75DC291
:103CA800C167637AF62413330610134313000E0317
:103CB800B3566600970700009387476CB69794231E
:103CC800930700029A96B38ED740639CD708B386B1
:103CD800C5408545135306013346060833D56602A9
:103CE80093570701B3F66602330EC502C206D58F95
:103CF80063FAC701C6979306F5FF63E4170163EFFC
:103D0800C7213685B387C741B3D66702334707084B
:103D1800B3F767023386C602C2075D8F637BC700AD
:103D280046979387F6FF63651701F9166363C70023
:103D3800BE864205558DD5BD9337061093C717002B
:103D48008E0789BD81469707000093872763B6973A
:103D580094230143930700029A96B38ED740E388D1
:103D6800D7F6B318D60133DED50013D30801B357FD
:103D78006E02B356D5003317D50133C60808B3957C
:103D8800D501CD8E93D50601337E6E023305F6023A
:103D9800420EB3E5C50163FBA500C695138EF7FF78
:103DA80063EA151763F8A516F917C695898D33D5F3
:103DB8006502B3C60608B3F56502330EA602C2054E
:103DC800CD8E63FBC601C6969305F5FF63E0161515
:103DD80063FEC6137915C69693950701B386C64147
:103DE800C98DEDBD93B7061093C717008E07B3D8DA
:103DF800F6001707000013076758469718231303A0
:103E080000023E97B308E340E303E3E8B35EE6004D
:103E1800B3961601B3EEDE0033D3E50013DF0E01CF
:103E2800B357E303B39515013357E5004D8F33CEF0
:103E38000E0893560701331616013373E303B305CF
:103E4800FE024203B3E6660063FBB600F6961383F0
:103E5800F7FF63E3D60D63F1B60CF917F6968D8E6E
:103E6800B3D5E60333470708B3F6E6033303BE02C8
:103E7800C206558F637B670076979386F5FF636963
:103E8800D70963776708F9157697C207416FCD8F11
:103E98009306FFFFB3F5D70013DE0701F18E4182C9
:103EA800B38ED50233076740B306DE0213D30E0183
:103EB800B385C502B6959A95330ECE0263F3D50045
:103EC8007A9E93D60501F2966363D7026305D700FD
:103ED8003E85814599BBC166FD1633F7D50042077B
:103EE800B3FEDE00331515017697E373E5FE1385FF
:103EF800F7FF81451DBBB70700016377F6029356AC
:103F08000601414345BB8145054505B32E85E9B505
:103F1800B685A5BFF28759BD9A8791B77915C69717
:103F2800D5B37915C697C9B993568601614359B374
:103F38003288AA882E87CDEA63FFC50EC167636AF7
:103F4800F618B7070001B337F600B307F040E19B56
:103F5800E1073353F60097060000938626429A96A7
:103F6800942213030002B697B306F340630BF300E1
:103F78003397D500B357F5003318D6005D8FB318C3
:103F8800D500135608013355C702B346080893D71E
:103F980008013377C702B385A6024207D98F63FAAF
:103FA800B700C2971307F5FF63E4070163E8B7306A
:103FB8003A858D8F33D7C702B3C80808B3F7C7024D
:103FC800B386E602C207B3E8F80063FBD800C298DC
:103FD8009307F7FF63E50801791763E3D8003E8785
:103FE8004205598D8145828063F5D500814501459B
:103FF8008280C16763E5F618B7070001B3B7F6001A
:10400800B307F040E19BE10733D8F600170700003B
:104018001307C73642971823930800023E97338840
:10402800E8406392E81863EDB6263335C5001345BA
:1040380015008145828045C6C167637BF624133726
:104048000610134717000E07B356E600970700003F
:104058009387C732B6979C2393060002BA97B38E0C
:10406800F640639DF608B387C5408545935606011B
:104078003346060833D5D70213D70801B3F7D7025A
:104088003303C502C207D98F63FA6700C2971307C3
:10409800F5FF63E4070163E067223A85B387674069
:1040A80033D7D702B3C80808B3F7D7023306C70215
:1040B800C207B3E8F80063FBC800C2989307F7FF8C
:1040C80063E50801791763E3C8003E874205598D07
:1040D80082809337061093C717008E079DBD8146CF
:1040E8009707000093878729B6979C230147930673
:1040F8000002BA97B38EF640E387F6F63318D60176
:1041080033D3F50093560801335ED302B395D50136
:10411800B357F500CD8F3346080813D70701B318F6
:10412800D5013373D302B305C6034203336767006F
:10413800637BB70042971305FEFF636A071763782E
:10414800B716791E42970D8F3355D702B3C70708A4
:104158003377D7023303A6024207D98F63FB670080
:10416800C2971307F5FF63E0071563FE6712791519
:10417800C29793150E01B3876740C98DE5BD93B704
:10418800061093C717008E0733D8F60017070000EC
:104198001307C71E42971823930800023E973388D7
:1041A800E840E382E8E8335EE600B3960601336E42
:1041B800DE00B3D8E500935E0E01B3D7D803B395FC
:1041C80005013357E5004D8F33430E089356070119
:1041D80033160601B3F8D803B305F302C208B3E6F1
:1041E800160163FBB600F2969388F7FF63E3C60DEA
:1041F80063F1B60CF917F2968D8EB3D5D603334713
:104208000708B3F6D603B308B302C206558F637B1B
:10421800170172979386F5FF6369C70963771709D2
:10422800F9157297C207C16ECD8F9386FEFFB3F55D
:10423800D70013D30701F18E4182338ED50233079D
:104248001741B306D30293580E01B385C502B6953C
:10425800C6953303C30263F3D500769393D605015D
:104268009A966363D7026305D7003E8581458280AD
:10427800C166FD1633F7D5004207337EDE003315DD
:1042880005017297E373E5FE1385F7FF8145828088
:10429800B70700016377F6029356060141477DB3DD
:1042A8008145054582803A85E9B5B685A5BF2A8E40
:1042B80059BDC68791B77915C297CDB37915C297FD
:1042C800CDB993568601614751B3AA8798218507CE
:1042D8008505A38FE7FE7DFB8280AA8701CA982106
:1042E80085058507A38FE7FE7D166DFB3E966393D4
:1042F800C70082808507A38F07FED5BF44E6FFFF6E
:104308004CE6FFFF54E6FFFF68E6FFFFCAE6FFFF43
:10431800C4E6FFFFD0E6FFFFD8E6FFFF50726F62EA
:104328006520656E746572696E6720495350000098
:10433800323032362D31302D3036207231392D74ED
:10434800656C656D657472790000000094EFFFFF7D
:10435800B6EFFFFFCCEFFFFFE0EFFFFFFEEFFFFF41
:10436800CCEFFFFFF0F0FFFF08F1FFFF2CF1FFFF9C
:1043780036F1FFFF4CF1FFFF0001020203030303C4
:1043880004040404040404040505050505050505DD
:1043980005050505050505050606060606060606BD
:1043A80006060606060606060606060606060606A5
:1043B800060606060606060607070707070707078D
:1043C8000707070707070707070707070707070775
:1043D8000707070707070707070707070707070765
:1043E8000707070707070707070707070707070755
:1043F800070707070707070708080808080808083D
:104408000808080808080808080808080808080824
:104418000808080808080808080808080808080814
:104428000808080808080808080808080808080804
:1044380008080808080808080808080808080808F4
:1044480008080808080808080808080808080808E4
:1044580008080808080808080808080808080808D4
:1044680008080808080808080808080808080808C4
:084478000808080808080808FC
:0244800001A099
:1044840092100020C00E0020380E0020380E0020AC
:104494000000000003000004204E0000FFFFFFFFA7
:0C44A400E803000026A21E0957CA000011
:00000001FF
